:10000000B8C00000F8C00000DCC00000DAC000008A
:10001000D8C00000D6C00000D4C00000D2C000008C
:10002000D0C00000CEC00000CCC00000CAC000009C
:10003000C8C00000C6C00000C4C00000C2C00000AC
:100040000C943F14BEC00000BCC00000BAC0000049
:10005000B8C00000B6C00000B4C00000B2C00000CC
:10006000B0C00000AEC00000010103030707030198
:10007000101018181C1C18100000000103070F189E
:10008000081C1E1E1E18000002070F0F0F030000A1
:1000900000000010181C1E030000000024002700B0
:1000A0002A0000000000250028002B0000000000AE
:1000B00023002600290004040404040404040202AA
:1000C00002020202030303030303010204081020D7
:1000D00040800102040810200102040810200000E2
:1000E00000070002010000030406000000000000F9
:1000F00000000600FF0901A101150026FF00750898
:100100009508090082020195200900B20201C0048D
:1001100003090412036F0062006400650076002E7C
:100120000061007400140344006100740061005316
:100130000074006F007200650012011001000000E1
:1001400008C016D92700010102000109022200019E
:100150000100807D09040000010300000009210165
:10016000010001221D000705810308006400320F11
:100170002D0F11241FBECFEFD8E0DEBFCDBF11E0A1
:10018000A0E0B1E0ECE6F5E302C005900D92A03BE3
:10019000B107D9F713E0A0EBB1E001C01D92AC307C
:1001A000B107E1F711E0C0E7D1E004C02297FE01FA
:1001B0000E946F1ACE36D107C9F70E94D70F0C9450
:1001C000AA1A1ECFA82FB92F80E090E041E050EA94
:1001D000609530E009C02D9182279795879510F0A2
:1001E00084279527305EC8F36F5FA8F30895EADF90
:1001F0008D939D930895CF93CFB7CF93DF93C395FE
:100200004A9BE9F74A9B10C04A9B0EC04A9B0CC010
:100210004A9B0AC04A9B08C04A9B06C0C091B001D5
:10022000C395C093B0018BC06F93C091EB02DD27E3
:10023000CE50DD4F2F9365E54A9B03C02F916F9100
:10024000E1CF0F931F934F9320E040E15F9309B1FB
:100250000C7002FB27F93F9350E03BE039C01C7063
:1002600040642F77012F5F5F1EC0406819B11C707A
:100270002F7752501FC0406409B12F770C70D1F115
:100280005F5F00C023C0406219B12F771C7091F1ED
:100290005F5F00C025C00C701027515012F45D5FE5
:1002A0000000115027952C3F19B1C8F61C7001278A
:1002B000015027952C3FC8F64227499309B10C708D
:1002C00010274F73115027952C3FA8F64695469559
:1002D00019B11C7079F00127015027952C3F98F631
:1002E0006B5A60F3315009B1B0F600C011E01CBB8D
:1002F000002719C03B503195C31BD04011E01CBBF7
:100300000881033C09F10B34F9F02091E9021981CD
:10031000110F1213EDCF4A81441F093651F10D32EE
:1003200011F0013E29F70093F0023F915F914F9148
:100330001F910F912F916F91CCB3C0FD60CFDF91D2
:10034000CF91CFBFCF9118952091F002222369F36E
:100350001091EE02112391F5343092F13093EE02B8
:100360002093EA021091EB023BE0311B3093EB0249
:1003700027C00091EE0201300CF50AE54F7049F4F8
:100380003091960134FD1DC000939601C2EDD2E07C
:100390001CC03091DD0234FD14C00093DD02CEEDAF
:1003A000D2E013C0052710E000C000000BB91AC04E
:1003B000052710E0221F1DC010E021C04AE502C041
:1003C00032ED432FC4E1D0E032E01AB11C605A9AFA
:1003D0000BB11AB95CE020E865E320FF05270BB9F3
:1003E000279517951C3FF0F66695B8F7B1F720FFF3
:1003F00005270BB9279517951C3FD0F6279517951C
:1004000017FF052700001C3F0BB9B0F629913A955C
:1004100019F7037F1091EF02110FC651D0400BB9AD
:1004200011F01093E90211E01CBB04601AB1137FB4
:10043000402F437F54E05A95F1F70BB91AB94BB9E5
:1004400074CFCF93DF93BC018230910510F462E04A
:1004500070E0A0910A03B0910B03ED01E0E0F0E041
:1004600040E050E021C0888199818617970769F4A0
:100470008A819B81309719F09383828304C0909383
:100480000B0380930A03FE0134C06817790738F420
:100490004115510519F08417950708F4AC01FE01C8
:1004A0008A819B819C01E9012097E9F6411551055C
:1004B000A9F1CA01861B970B049708F4BA01E0E082
:1004C000F0E02AC08D919C91119784179507F9F45B
:1004D0006417750781F412968D919C91139730974C
:1004E00019F09383828304C090930B0380930A03D3
:1004F000FD0132964CC0CA01861B970BFD01E80F27
:10050000F91F6193719302978D939C9340C0FD01F5
:10051000828193819C01D9011097A1F680910803F3
:1005200090910903892B41F480918B0190918C016A
:10053000909309038093080340918D0150918E019F
:100540004115510541F44DB75EB7809189019091F5
:100550008A01481B590B2091080330910903CA01F5
:10056000821B930B8617970780F0AB014E5F5F4F9E
:100570008417950750F0420F531F5093090340937F
:100580000803F9016193719302C0E0E0F0E0CF014C
:10059000DF91CF910895CF93DF93009709F450C076
:1005A000EC0122971B821A82A0910A03B0910B03DF
:1005B000109709F140E050E0AC17BD0708F1BB838C
:1005C000AA83FE0121913191E20FF31FAE17BF07FD
:1005D00079F48D919C911197280F391F2E5F3F4F11
:1005E0003983288312968D919C9113979B838A83DC
:1005F0004115510571F4D0930B03C0930A0320C039
:1006000012968D919C911397AD01009711F0DC012A
:10061000D3CFFA01D383C28321913191E20FF31F2B
:10062000CE17DF0769F488819981280F391F2E5F63
:100630003F4FFA01318320838A819B819383828398
:10064000DF91CF910895A0E0B0E0E9E2F3E00C94EF
:10065000751A6C01009721F4CB01F3DE6C01BDC06B
:100660008EEF882E8FEF982E8C0C9D1C8601060F26
:10067000171F0815190508F4AEC0F401A081B18157
:10068000A617B707B0F0A530B10508F4A6C0CD0194
:1006900004978617970708F4A0C01297A61BB70BFC
:1006A000F801A193B193D4016D937C93CF0173DFD3
:1006B00094C07B01EA1AFB0AEEEFFFEFEE0EFF1E7D
:1006C00036016A0E7B1EC0910A03D0910B034424AD
:1006D0005524AA24BB244AC0C615D705E1F5488194
:1006E00059814E155F05B8F1CA0104978E159F0513
:1006F000B0F41296A40FB51FF401B183A0832A8130
:100700003B814114510431F0D20113963C932E9356
:10071000129763C030930B0320930A035EC08A8153
:100720009B81F80193838283425050404E195F09A8
:10073000518340834114510431F0D20113961C932C
:100740000E93129704C010930B0300930A03F40155
:100750007183608342C088819981A816B90608F424
:100760005C012E018A819B819C01E901209709F09F
:10077000B3CF809108039091090386159705E9F49A
:10078000A616B706D0F420918D0130918E01211567
:10079000310541F42DB73EB78091890190918A01CE
:1007A000281B390B02171307B0F4109309030093A9
:1007B0000803D4016D937C9310C0CB0142DEEC01A1
:1007C000009749F0F40140815181B6013BD0C60148
:1007D000E2DE6E0102C0CC24DD24C601CDB7DEB757
:1007E000E0E10C94911A1F93FC0199278827BC0122
:1007F000E89411911032E9F3193010F01E30C8F36B
:100800001B3249F01D3241F4689405C02BD0610FB2
:10081000711D811D911D119110531A30B8F33EF4D2
:1008200090958095709561957F4F8F4F9F4F1F9149
:100830000895FB01DC0102C005900D92415050402B
:10084000D8F70895FB01DC0102C001900D924150E0
:100850005040D8F70895FB01DC0101900D92002073
:10086000E1F70895592F482F372F262F660F771F4E
:10087000881F991F660F771F881F991F620F731FAC
:10088000841F951F660F771F881F991F08950F9368
:100890001F93182F092F4AE050E00E940A11812F60
:1008A000902F60E071E00E9428111F910F91089530
:1008B000CF92DF92EF92FF920F931F93CF93DF932C
:1008C000EC016C0184E0E82EF12CEC0EFD1E8E0193
:1008D0000E5B1F4F1CC08AE392E061E034D48AEBC8
:1008E00091E062E01CD30E94BF18C60162E071E093
:1008F0000E9428110E94CB17882349F0C7010E944B
:10090000CE178C818E3719F481E0F8018083F801CD
:100910008081882301F38AEB91E061E000D38AE3D0
:1009200092E060E010D4DF91CF911F910F91FF9082
:10093000EF90DF90CF900895AF92BF92CF92DF9269
:10094000EF92FF920F931F93DF93CF93CDB7DEB754
:100950006C970FB6F894DEBF0FBECDBF7C013BE2B3
:10096000C32ED12CC80ED91EC60160E070E00E94D3
:100970006B11B82E8E010F5F1F4FC801B60141E009
:1009800050E00E94AB12C601B8010E94B612C80125
:100990000E94D41284E2B81691F190E4B91629F0BD
:1009A000E1E2BE1609F03FC014C0C701C296B6010D
:1009B0000E94B612C60164E071E00E944F1280E40A
:1009C00090E0E80EF91E81E0F701808380EC9FEF54
:1009D00013C0C701C996B6010E94B612C60164E0F1
:1009E00071E00E944F12E1E4F0E0EE0EFF1E81E0A4
:1009F000F70180838FEB9FEFE80EF91E14C08E0184
:100A0000085F1F4FC801B6010E94CB128FE092E031
:100A1000B8010E94BE0DC8010E94D412C60164E054
:100A200071E00E944F1221E4A22EB12CAE0CBF1C2B
:100A3000F501208130E090E4C92ED12CCE0CDF1CD2
:100A4000F601808190E028233923232B69F18E0160
:100A5000015F1F4F82E390E0E80EF91EC801B70165
:100A60000E94CB1286E192E0B8010E94630EC80199
:100A70000E94D4128E010A5E1F4FE7E0F0E0EE0EF6
:100A8000FF1EC801B7010E94CB1286E192E0B801B7
:100A90000E94500EC8010E94D4128AE392E060D6F0
:100AA000F5011082F60110826C960FB6F894DEBF45
:100AB0000FBECDBFCF91DF911F910F91FF90EF90AF
:100AC000DF90CF90BF90AF9008958F929F92AF929A
:100AD000BF92DF92EF92FF920F931F93DF93CF931A
:100AE000CDB7DEB727970FB6F894DEBF0FBECDBFE8
:100AF0005C010E94BF180E94CB17882339F1850141
:100B00000C5F1F4FC8010E94CE17F501D48044E24C
:100B1000842E912C8A0C9B1C7E010894E11CF11CF4
:100B2000C701B8010E943612C401B7010E94B61273
:100B3000C7010E94D412FDE3DF1619F4C501FCDEE3
:100B400005C0C5018B96B4010E94FF1127960FB610
:100B5000F894DEBF0FBECDBFCF91DF911F910F91F3
:100B6000FF90EF90DF90BF90AF909F908F9008958F
:100B7000EF92FF920F931F938C010E94C31754E0D2
:100B8000E52E51E0F52EC8018496B7010E94361279
:100B9000C8018B96B7010E943612C801C296B701F0
:100BA0000E943612C801C996B7010E9436120E94EF
:100BB0007D18005C1F4FF8011192119210821F9155
:100BC0000F91FF90EF900895EF92FF920F931F9374
:100BD000CF93DF93EC018FE092E02AD6882309F4CB
:100BE00048C00E9487147B018C018A899B89AC894B
:100BF000BD89A8019701281B390B4A0B5B0B8B8D14
:100C00009C8DAA2797FDA095BA2F82179307A4075A
:100C1000B50778F5EA8AFB8A0C8B1D8B8E8D9D8D2E
:100C20008F3F01F1913061F0913018F09230B1F4C2
:100C30000EC02DA18FE092E0622F40E020950DC004
:100C40004DA1642F60958FE092E020E006C02DA1B9
:100C5000422F40958FE092E060E0EAD68E8D8F5F64
:100C60008E8F07C01E8E892F8F5F8D8F833009F482
:100C70001D8EDF91CF911F910F91FF90EF900895FE
:100C8000AF92BF92CF92DF92EF92FF920F931F939A
:100C9000CF93DF93EC018FE092E0CDD58823B9F1BB
:100CA0008FE092E0CED5882391F10E9487145B01FA
:100CB0006C018E859F85A889B98986017501E81A1E
:100CC000F90A0A0B1B0B8FE092E0B8D590E0A0E088
:100CD000B0E08E159F05A007B107C8F4AE86BF86A9
:100CE000C88AD98A8EAD843031F41EAE8FE092E08E
:100CF00060E0AAD50CC080FD04C08FE092E08AD6E7
:100D000003C08FE092E078D68EAD8F5F8EAFDF911B
:100D1000CF911F910F91FF90EF90DF90CF90BF90F8
:100D2000AF9008952F923F924F925F926F927F9271
:100D30008F929F92AF92BF92CF92DF92EF92FF92EB
:100D40000F931F93DF93CF9300D000D00F92CDB7B6
:100D5000DEB79D838C83242E2983602E77248824FC
:100D6000992400D000D070E080E090E0EDB7FEB7AD
:100D7000618272828382948220E030E040E050E021
:100D8000FFEFEF2EF12C012D112DAA24BB246501BC
:100D90000E94E30F6B83332444245524EDB7FEB740
:100DA0006182728283829482C201B10120E030E0CC
:100DB00040E050E00E94E30F262EF9816F2F70E093
:100DC00080E090E0EDB7FEB7618272828382948208
:100DD00020E030E040E050E00E94E30F662EFB810F
:100DE0006F2F70E080E090E0EDB7FEB711821282C5
:100DF0001382148220E030E040E050E0EFEFAE2EAE
:100E0000B12CC12CD12C0E94E30F6A8333244424DB
:100E10005524EDB7FEB71182128213821482C201EB
:100E2000B10120E030E040E050E00E94E30F562E98
:100E3000772488249924EDB7FEB711821282138299
:100E40001482C401B30120E030E040E050E00E9491
:100E5000E30F2A81EC81FD81278F50A261A30F90BF
:100E60000F900F900F9087816A8170E00E94FB12B3
:100E7000EC81FD8160A1808570E00E94FB12EC8115
:100E8000FD8161A1818570E00E94FB120F900F909F
:100E90000F900F900F90CF91DF911F910F91FF90C6
:100EA000EF90DF90CF90BF90AF909F908F907F900A
:100EB0006F905F904F903F902F900895FC01848138
:100EC0000E94D91262E070E00E94091ACB010895D5
:100ED0000F931F93CF93DF938C01EC01A696CE0165
:100EE0000E942A17882331F0CE010E9427178823F9
:100EF00081F00EC0E801E296CE010E942A178823F5
:100F000049F0CE010E942717882311F482E002C025
:100F100001C081E0DF91CF911F910F910895DF9281
:100F2000EF92FF920F931F93CF93DF93EC01DD2499
:100F3000D394613041F0613018F0623089F508C017
:100F4000888160E002C0888161E00E94981328C017
:100F50000E9487147B018C018A859B85AC85BD85A9
:100F6000A8019701281B390B4A0B5B0B8E899F89BF
:100F7000AA2797FDA095BA2F82179307A407B50754
:100F800078F4EA86FB860C871D878AE392E04CD1D1
:100F9000888D882311F0188E01C0D88E688DC9CF36
:100FA000DF91CF911F910F91FF90EF90DF90089507
:100FB000AF92BF92CF92DF92EF92FF920F931F9367
:100FC000DF93CF93CDB7DEB768970FB6F894DEBF47
:100FD0000FBECDBF7C01B6E2CB2ED12CC80ED91EE0
:100FE000C6010E941D17A2E3AA2EB12CAE0CBF1C95
:100FF000C5010E941D1782E190E0F7019183808373
:1010000084E0828381E183838EE084838FE0858323
:1010100080E1868389E0878385E0808786E0818719
:101020008FE061E00E949813F701858161E00E94E2
:101030005913F701808161E00E945913F7018681FD
:1010400061E00E945913F701828160E00E94591308
:10105000F701838160E00E945913F701878161E005
:101060000E945913F701808561E00E945913F7012E
:10107000818561E00E945913F701878161E00E9438
:101080009813F701808561E00E949813F70181852C
:1010900061E00E9498138E010F5F1F4FC8010E94EC
:1010A0001D17D601F8018CE001900D928150E1F7F7
:1010B0008E01035F1F4FC8010E941D17D701D296F2
:1010C000F8018CE001900D928150E1F7F701628107
:1010D000772767FD7095C6010E945B17F701638152
:1010E000772767FD7095C5010E945B17F70112868F
:1010F00013861486158616861786108A118A128A18
:10110000138A148A158A84EF91E0978B868B108E50
:10111000118E158E168E15A216AE17AE68960FB6E6
:10112000F894DEBF0FBECDBFCF91DF911F910F911D
:10113000FF90EF90DF90CF90BF90AF900895FC01AB
:10114000738B628B0895CF93DF93EC01662301F5D7
:1011500023C08AEF91E00E9442168AEF91E066E098
:1011600040E00E9414168AEF91E065E071E00E9471
:1011700026118AEF91E066E041E00E9414168AEFA2
:1011800091E060E171E00E94261181E08F83188672
:101190008F818823F1F21CC08AEF91E00E944216F1
:1011A0008AEF91E060E040E00E9414168AEF91E03F
:1011B00068E171E00E9426118AEF91E060E041E071
:1011C0000E9414168AEF91E064E271E00E942611F9
:1011D000DF91CF910895FF920F931F93CF93DF93E9
:1011E0008C01F62E8AEF91E060E04F2D0E941416DC
:1011F000C0E0D0E007C08AEF91E063E371E00E94B5
:1012000026112196F801808191818C179D079CF70A
:101210008AEF91E060E04F2D0E941416DF91CF918C
:101220001F910F91FF900895FC018085823011F489
:10123000108602C08F5F808780858130F9F0813011
:1012400020F0823009F046C032C08AEF91E060E0C1
:1012500041E00E9414168AEF91E065E371E0F6D751
:101260008AEF91E061E040E00E9414168AEF91E07D
:1012700060E01CD78AEF91E061E018C08AEF91E04E
:1012800060E040E00E9414168AEF91E06AE371E0AA
:10129000DDD78AEF91E060E041E00E9414168AEF0A
:1012A00091E062E003D78AEF91E063E0FFC68AEF46
:1012B00091E060E041E00E9414168AEF91E06EE355
:1012C00071E0C4D78AEF91E064E0F0D68AEF91E054
:1012D00065E0ECC60895DF92EF92FF920F931F93A3
:1012E000D62E7A0188E090E0ACD8182F092FB701EC
:1012F00048E050E09EDA8AEF91E06D2D412F502FAB
:101300000E94DF15812F902F46D91F910F91FF90DA
:10131000EF90DF9008950F931F93CF93DF938C018D
:10132000C0E0D0E08FE092E06C2FEED36AE070E096
:1013300080E090E00E949514229681E0C030D807AA
:1013400089F7C80160E048E650E0C5DFC80161E008
:1013500040E750E0C0DFC80162E048E750E0BBDF93
:10136000C80163E040E850E0B6DFC80164E048E847
:1013700050E0B1DFC80165E040E950E0ACDF8AEF42
:1013800091E00E9442168AEF91E060E040E00E9406
:1013900014168AEF91E063E371E058D78AEF91E089
:1013A00060E084D68AEF91E061E080D66AEF70E079
:1013B00080E090E00E9495148AEF91E060E041E0C7
:1013C0000E9414168AEF91E062E070D68AEF91E0F5
:1013D00063E06CD66AEF70E080E090E00E949514C4
:1013E0008AEF91E064E062D68AEF91E065E05ED634
:1013F0006AEF70E080E090E00E9495148AEF91E03F
:1014000066E040E00E9414168AEF91E061E471E02A
:101410001DD78AEF91E066E041E00E9414168AEF42
:1014200091E069E471E012D768EE73E080E090E04B
:101430000E9495148AEF91E066E040E00E94141645
:101440008AEF91E063E571E001D78AEF91E066E011
:1014500041E00E9414168AEF91E06BE571E0F6D648
:10146000DF91CF911F910F910895CF93DF93EC01FE
:10147000662389F18AEF91E00E9442168AEF91E09B
:1014800060E040E00E9414168AEF91E065E671E0AA
:10149000DDD68AEF91E060E041E00E9414168AEF09
:1014A00091E066E771E0D2D660EA7FE080E090E00C
:1014B0000E9495148AEF91E00E9442168FE092E01C
:1014C00060E022D38D8560E00E9498138AEF91E05E
:1014D0000E940E1614C08D8561E00E9498138FE063
:1014E00092E060E011D38FE092E060E046E92FEFF8
:1014F0009FD28AEF91E00E940616CE010CDFDF91A9
:10150000CF910895CF92DF92EF92FF920F931F93A6
:10151000DF93CF93CDB7DEB72E970FB6F894DEBF2B
:101520000FBECDBF6C01FC01078510E086E192E0A3
:1015300093D3F60120813181821B930B8017910791
:1015400064F17E010894E11CF11CC70166E172E0C0
:1015500093D3F60147858E01085F1F4F20813181AB
:10156000240F311DC801B70150E0B0D7C701B80141
:10157000FDD7C8010E94D4128AEF91E060E041E0FB
:101580000E9414168AEF91E0B70173D6F6018785A1
:101590008F5F8787C7010E94D412F601078510E08C
:1015A00086E192E059D3F60120813181821B930BB1
:1015B00001960817190719F484818F5F84832E968A
:1015C0000FB6F894DEBF0FBECDBFCF91DF911F9154
:1015D0000F91FF90EF90DF90CF9008950F931F939E
:1015E000DF93CF93CDB7DEB727970FB6F894DEBF62
:1015F0000FBECDBF8C01FC01148286E192E030D396
:10160000882361F081E0F801868385830E94871436
:10161000F801618772878387948702C0F801168278
:10162000C80161E0D8DD8E010F5F1F4FC80166E180
:1016300072E05CD38AEF91E0B8011BD6C801B4D741
:101640008FE092E061E000D127960FB6F894DEBFFC
:101650000FBECDBFCF91DF911F910F910895EF92F3
:10166000FF920F931F93CF93DF93EC018E8188231A
:1016700009F46FC08C81813079F1813020F08230A3
:1016800009F067C047C08D81882319F10E94871433
:101690007B018C0189859A85AB85BC85A801970162
:1016A000281B390B4A0B5B0B8A819B81AA2797FD6C
:1016B000A095BA2F82179307A407B50708F049C071
:1016C000E986FA860B871C878C818F5F8C831F8647
:1016D00040C0CE0183DF3DC00E9487147B018C0196
:1016E00089859A85AB85BC85A8019701281B390B94
:1016F0004A0B5B0B8A899B89A0E0B0E082179307B5
:10170000A407B50730F5E986FA860B871C87CE015A
:10171000F9DE1FC00E9487147B018C0189859A85A0
:10172000AB85BC85A8019701281B390B4A0B5B0BC5
:101730008A819B81AA2797FDA095BA2F82179307CC
:10174000A407B50730F4E986FA860B871C871C824C
:101750001D82DF91CF911F910F91FF90EF9008951F
:10176000EF92FF920F931F93DF93CF93CDB7DEB726
:1017700027970FB6F894DEBF0FBECDBF7C0160E0A7
:101780002ADD8E010F5F1F4FC80166E172E07ED235
:101790008AEF91E0B8016DD5C80106D7C7011EDFF9
:1017A00027960FB6F894DEBF0FBECDBFCF91DF9165
:1017B0001F910F91FF90EF9008950F931F938C014D
:1017C000FC01608371838AEF91E042E020E00E9497
:1017D000471680EA9FE0F801938382831782108680
:1017E000118612861386148680E190E0968785879D
:1017F0001786108A118A138A128A88EB9BE0958BD0
:10180000848B80ED97E0978B868B128E138E148ECF
:10181000158E1F910F910895FC011082118288ECA2
:1018200090E093838283148284E6858316820895F0
:10183000FC0181810895FC0184810895FC0185816A
:101840000895FC0186810895FC0166830895CF9276
:10185000DF92EF92FF920F931F93DF93CF93CDB759
:10186000DEB72E970FB6F894DEBF0FBECDBF7C015A
:101870006B018E010F5F1F4FC80140E050E06BD637
:10188000C8014BD5611571058105910519F4F70162
:10189000118203C081E0F70181838E01085F1F4F31
:1018A000C801B60141E050E023E030E00FD6C801A6
:1018B00034D5F70173836283C80176D6CE010196D1
:1018C00073D62E960FB6F894DEBF0FBECDBFCF9164
:1018D000DF911F910F91FF90EF90DF90CF900895CF
:1018E0006F927F928F929F92AF92BF92CF92DF9230
:1018F000EF92FF920F931F93DF93CF93CDB7DEB795
:10190000A3970FB6F894DEBF0FBECDBF5C013B01BD
:101910008E010F5F1F4FC80140E050E01CD6C80188
:10192000FCD4611571058105910519F4F501148246
:1019300003C081E0F501848328E0822E912C8C0E77
:101940009D1EC401B30141E050E023E030E0BED56C
:10195000C401E3D4F50165839FE0C92ED12CCC0EE0
:10196000DD1EC601B30144E050E026E030E0AED514
:1019700086E1E82EF12CEC0EFD1EC701B30147E015
:1019800050E029E030E0A2D58E01035E1F4FC80170
:10199000B3014AE050E02CE030E098D5C601BDD458
:1019A000A62EC701BAD4B62EC801B7D4A092920110
:1019B000B092930160939401C801F6D5C701F4D5A4
:1019C000C601F2D5C401F0D5CE010196EDD5A3969E
:1019D0000FB6F894DEBF0FBECDBFCF91DF911F9140
:1019E0000F91FF90EF90DF90CF90BF90AF909F90BE
:1019F0008F907F906F9008950F93FC018AEB91E098
:101A000060919201409193012091940100818AD9C3
:101A10000F9108950F93FC018AEB91E060918F0183
:101A2000409190012091910100817CD90F910895FE
:101A30000F93FC0160938F014093900120939101DB
:101A40008AEB91E000816ED90F9108958F929F9259
:101A5000AF92BF92CF92DF92EF92FF920F931F93BC
:101A6000DF93CF93CDB7DEB765970FB6F894DEBF9F
:101A70000FBECDBF4C018B015E010894A11CB11CAF
:101A8000C50140E050E022E030E020D548E0C42E1F
:101A9000D12CCC0EDD1EC601B80143E050E025E09C
:101AA00030E014D53FE0E32EF12CEC0EFD1EC70113
:101AB000B80146E050E028E030E008D5C5012DD45B
:101AC000062FC6012AD4162FC70127D4262FC401FA
:101AD000602F412FADDFC70167D5C60165D5C501B0
:101AE00063D565960FB6F894DEBF0FBECDBFCF911C
:101AF000DF911F910F91FF90EF90DF90CF90BF90FB
:101B0000AF909F908F9008950F93FC01062F6083F4
:101B10008AEB91E060918F014091900120919101B9
:101B200001D90F910895EF92FF920F931F93DF93C6
:101B3000CF93CDB7DEB727970FB6F894DEBF0FBEB1
:101B4000CDBF7C018E010F5F1F4FC80140E050E008
:101B500022E030E0BBD4C801E0D3C701D5DFC80123
:101B600023D527960FB6F894DEBF0FBECDBFCF9119
:101B7000DF911F910F91FF90EF900895AF92BF9268
:101B8000DF92EF92FF920F931F93DF93CF93CDB726
:101B9000DEB7A3970FB6F894DEBF0FBECDBF5C01D2
:101BA0007B01CB0160E070E096D3D82E8E010F5FF1
:101BB0001F4FC801B70141E050E0CDD4C701B801C3
:101BC000D5D4C801F1D483E6D816B9F08D1520F02C
:101BD00082E6D81689F507C084E6D816C1F085E6F6
:101BE000D81651F51EC08E01085F1F4FC801B701FE
:101BF000D2D4C501B80197DF1DC08E01015F1F4F10
:101C0000C801B701C8D4C501B80120DF13C08E01D7
:101C10000A5E1F4FC801B701BED4C501B80160DE1E
:101C200009C08E01035E1F4FC801B701B4D4C501BE
:101C3000B8010DDEC801B8D4A3960FB6F894DEBF84
:101C40000FBECDBFCF91DF911F910F91FF90EF900D
:101C5000DF90BF90AF900895FC018485958508952D
:101C6000FC0140E0808190E0248535858217930750
:101C700008F441E0842F08950F931F938C01685F4F
:101C80007F4F89D4C8011F910F9108950F931F931F
:101C90008C016F5F7F4F7FD4C8011F910F91089512
:101CA000EF92FF920F931F937B018C01085F1F4FF0
:101CB0004696B8015BD4C801B70158D41F910F9163
:101CC000FF90EF900895EF92FF920F931F937B0187
:101CD0008C010F5F1F4F0F96B80148D4C801B701A0
:101CE00045D41F910F91FF90EF900895CF92DF920E
:101CF000EF92FF920F931F93DF93CF93CDB7DEB791
:101D000027970FB6F894DEBF0FBECDBF6C01FB0165
:101D10008081282F30E084859585685F7F4F281764
:101D2000390710F0C60113C08DE1E82EF12CEE0E3C
:101D3000FF1E8E010F5F1F4FC80140E050E0C6D369
:101D4000C701B80113D4C8012FD4C601B70123D4E9
:101D5000C60127960FB6F894DEBF0FBECDBFCF9158
:101D6000DF911F910F91FF90EF90DF90CF9008953A
:101D7000DF92EF92FF920F931F938C01D62E97E87C
:101D8000E92E91E0F92EC8010196B7016FD3C80181
:101D90000896B7016BD3C8010F96B70167D3C80186
:101DA0004696B70163D3C8014D96B7015FD3F801DA
:101DB000D0821F910F91FF90EF90DF900895CF9206
:101DC000EF920F938130910521F56F5F7F4F09F0FE
:101DD00040C08AEB91E0ECD88AEF91E067E048E000
:101DE0002DE00AE05BE0E52E3CE0C32EEED78FE06D
:101DF00092E012DD86E192E060E170E0B9DF8AE313
:101E000092E060E170E0D9DC88E592E00E94B805DC
:101E100020C0892BF1F46F5F7F4FD9F481E992E004
:101E2000C3D38AE892E0C0D383E892E0BDD38CE7C5
:101E300092E0BAD383E392E0B7D38CE292E0B4D3DA
:101E400085E292E0B1D38EE192E0AED387E192E0F9
:101E5000ABD30F91EF90CF90089580E090E06FEFBB
:101E60007FEFADCF81E090E06FEF7FEFA8CF8AEBFF
:101E700091E02ED8682F882321F088E592E00C9419
:101E8000470408958AE392E060E0EFDA88E592E0A3
:101E90000C9458048AE392E061E0E7DA8AEB91E07F
:101EA00060E03DD80CC00E94BF180ED08091B101F7
:101EB000882329F48AE392E060E0D7DAE3DF8091B7
:101EC000B101882381F70895EF92FF920F931F933A
:101ED0001ED57B018C012091B0018091B6019091BB
:101EE000B701A091B801B091B901B801A701481B91
:101EF000590B6A0B7B0BDB01CA01855F9140A04047
:101F0000B04058F130E040E050E0E092B601F0928D
:101F1000B7010093B8011093B9018091B20190917B
:101F2000B301A091B401B091B501281739074A0750
:101F30005B0749F48091B101882379F481E08093B3
:101F4000B101A8DF0AC02093B2013093B3014093DE
:101F5000B4015093B5011092B1011F910F91FF9000
:101F6000EF9008958FCF0895EF92FF920F931F93F4
:101F700088E592E00E9465057ADF0AEB11E0C8016E
:101F80000E945E07BC01EAE3EE2EE2E0FE2EC701EE
:101F9000D6D8C8010E94E405C70161DBC8010E94D0
:101FA000400692DF1F910F91FF90EF900895CF931D
:101FB000DF931ED5D7DFC0E0D0E0D6DF2097E9F36E
:101FC0000E940000FACF2F923F924F925F926F9241
:101FD0007F928F929F92AF92BF92CF92DF92EF92B9
:101FE000FF920F931F93DF93CF93CDB7DEB73B01E3
:101FF0004C0119012A016D897E898F89988D6A1992
:102000007B098C099D09621A730A840A950AA40146
:1020100093010E94EA19E218F30804091509A801BE
:1020200097010E943E1A2A0D3B1D4C1D5D1DB901F2
:10203000CA01CF91DF911F910F91FF90EF90DF9038
:10204000CF90BF90AF909F908F907F906F905F9058
:102050004F903F902F900895CF92DF92EF92FF9292
:102060000F931F93CF93DF937C016B018A01C0E034
:10207000D0E00FC0D6016D916D01D701ED91FC91BB
:102080000190F081E02DC7010995C80FD91F0150BB
:1020900010400115110571F7CE01DF91CF911F910D
:1020A0000F91FF90EF90DF90CF900895DC01ED91BC
:1020B000FC910190F081E02D09950895EF92FF9237
:1020C0000F931F938C01DC01ED91FC910190F08145
:1020D000E02D6DE009957C01D801ED91FC91019016
:1020E000F081E02DC8016AE009959C012E0D3F1D8D
:1020F000C9011F910F91FF90EF900895CF93DF9347
:10210000EC016115710519F420E030E00FC0DB012E
:102110000D900020E9F71197A61BB70BE881F98114
:102120000280F381E02DAD0109959C01C901DF9189
:10213000CF9108954F925F927F928F929F92AF922C
:10214000BF92CF92DF92EF92FF920F931F93DF9394
:10215000CF93CDB7DEB7A1970FB6F894DEBF0FBE11
:10216000CDBF2C01742ECB01223008F42AE019A235
:1021700031E2C32ED12CCC0EDD1E822E9924AA244E
:10218000BB24672D752FA50194010E941C1A7901AB
:102190008A01C801B701A50194010E94EA19472DDF
:1021A000461B0894C108D1084A3014F4405D01C0B0
:1021B000495CF6014083E114F1040105110521F0A9
:1021C0007E2C5F2DC801DDCFC201B60197DFA1963D
:1021D0000FB6F894DEBF0FBECDBFCF91DF911F9138
:1021E0000F91FF90EF90DF90CF90BF90AF909F90B6
:1021F0008F907F905F904F900895DC0121153105FD
:1022000041F4ED91FC910190F081E02D642F09954E
:10221000089590CFCF92DF92EF92FF920F931F938A
:102220006C01E62E9A01FF2400E010E0B801A7013E
:10223000E4DF8C01C60142DF080F191FC8011F919E
:102240000F91FF90EF90DF90CF90089557CF0895B2
:10225000EF92FF920F931F937C0150DF8C01C70117
:102260002DDF080F191FC8011F910F91FF90EF90EC
:102270000895AF92BF92CF92DF92EF92FF920F93A9
:102280001F93CF93DF935C016B01EE24FF24C0E02A
:10229000D0E00FC0D501ED91FC9100811181C60104
:1022A000BE012AD0682FC501F8010995E80EF91E74
:1022B0002196F60184819581C817D90758F3C70183
:1022C000DF91CF911F910F91FF90EF90DF90CF9012
:1022D000BF90AF900895FC018481958168177907BC
:1022E00048F40190F081E02D309721F0E60FF71FC0
:1022F0008081089580E00895FC01848195816817AC
:10230000790748F40190F081E02D309721F0E60F35
:10231000F71F8081089580E00895FC0180819181FC
:10232000009729F420E030E040E050E004C00E9433
:10233000F3039B01AC01B901CA0108950F931F93E8
:10234000CF93DF93EC018B016F5F7F4F8881998181
:102350000E942303009711F480E005C099838883CD
:102360001B830A8381E0DF91CF911F910F91089524
:10237000CF93DF93EC0188819981892B29F08A81A1
:102380009B818617970758F4CE01D8DF882341F048
:102390008C819D81892B19F4E881F981108281E07B
:1023A000DF91CF910895EF92FF920F931F93CF93F8
:1023B000DF93EC017B016C817D81E114F104B9F0C4
:1023C0004115510591F08A01060F171FB801D0DFA2
:1023D000882369F0888199812C813D81820F931F28
:1023E000B7010E942B041D830C8381E001C080E0B3
:1023F000DF91CF911F910F91FF90EF900895FB0116
:102400006081718144815581CECFCF93DF93EC0100
:1024100088819981009711F00E94CB02198218825D
:102420001D821C821B821A82DF91CF910895EF9248
:10243000FF920F931F93CF93DF93EC017B018A01EF
:10244000BA0196DF882319F4CE01DFDF07C01D83B0
:102450000C8388819981B7010E942B04CE01DF9102
:10246000CF911F910F91FF90EF900895CF93DF933D
:10247000EC01198218821B821A821D821C821E8224
:102480006115710549F0DB010D900020E9F7119706
:10249000A61BB70BAD01CBDFDF91CF9108950F9352
:1024A0001F93182F092F6115710551F0DB010D9055
:1024B0000020E9F71197A61BB70BAD01B8DF01C0EB
:1024C000A4DF812F902F1F910F910895BF92CF927B
:1024D000DF92EF92FF920F931F93CF93DF93082F1A
:1024E000B92E6B017A01E9012417350710F4EA01CE
:1024F0007901802F9B2D68E871E0B8DFD601149632
:102500008D919C9115978E159F05C8F08C179D078E
:1025100008F4EC01D601ED91FC911197EC0FFD1F31
:10252000108110826D917C916E0D7F1D802F9B2DEF
:10253000B6DFD601ED91FC91EC0FFD1F1083802FCB
:102540009B2DDF91CF911F910F91FF90EF90DF9026
:10255000CF90BF9008950F931F938C01FB012481AE
:102560003581B4DFC8011F910F910895CF93DF9398
:10257000EC01FB018617970751F0608171816115AD
:10258000710521F04481558152DF01C03EDFCE014B
:10259000DF91CF910895FC01118210821382128283
:1025A000158214821682E2CFFC01808191810C9405
:1025B000CB02982F8E3008F09E5097708091950135
:1025C0008295880F880F807C892B80937C00809176
:1025D0007A00806480937A0080917A0086FDFCCF37
:1025E0002091780040917900942F80E030E0282BF2
:1025F000392BC90108951F93CF93DF93182FEB0157
:1026000061E057D0209709F44AC0CF3FD10509F4C3
:1026100049C0E12FF0E0E252FF4F84918330C1F0D6
:10262000843028F4813051F08230B1F50CC086300E
:1026300019F1873049F1843079F514C084B5806888
:1026400084BDC7BD32C084B5806284BDC8BD2DC005
:1026500080918000806880938000D0938900C0932F
:10266000880023C080918000806280938000D09396
:102670008B00C0938A0019C08091B000806880935D
:10268000B000C093B30011C08091B000806280930D
:10269000B000C093B40009C0C038D1051CF4812F2C
:1026A00060E002C0812F61E043D0DF91CF911F91A4
:1026B0000895CF93DF93482F50E0CA0186539F4F70
:1026C000FC0134914A545F4FFA018491882369F1E7
:1026D00090E0880F991FFC01E856FF4FA591B49137
:1026E000FC01EE55FF4FC591D491662351F42FB7ED
:1026F000F8948C91932F909589238C9388818923CA
:102700000BC0623061F42FB7F8948C91932F9095A1
:1027100089238C938881832B88832FBF06C09FB722
:10272000F8948C91832B8C939FBFDF91CF91089568
:10273000482F50E0CA0182529F4FFC012491CA01E8
:1027400086539F4FFC0194914A545F4FFA01349194
:10275000332309F440C0222351F1233071F0243097
:1027600028F42130A1F0223011F514C02630B1F048
:102770002730C1F02430D9F404C0809180008F77D5
:1027800003C0809180008F7D8093800010C084B54D
:102790008F7702C084B58F7D84BD09C08091B00061
:1027A0008F7703C08091B0008F7D8093B000E32FBE
:1027B000F0E0EE0FFF1FEE55FF4FA591B4912FB73C
:1027C000F894662321F48C919095892302C08C9112
:1027D000892B8C932FBF0895682F70E0CB01825214
:1027E0009F4FFC012491CB0186539F4FFC014491E4
:1027F0006A547F4FFB019491992319F420E030E053
:102800003CC0222351F1233071F0243028F42130D0
:10281000A1F0223011F514C02630B1F02730C1F0FC
:102820002430D9F404C0809180008F7703C0809158
:1028300080008F7D8093800010C084B58F7702C0A8
:1028400084B58F7D84BD09C08091B0008F7703C0AF
:102850008091B0008F7D8093B000892F90E0880F29
:10286000991F84559F4FFC01A591B4918C9120E054
:1028700030E0842311F021E030E0C90108951F9277
:102880000F920FB60F9211242F933F938F939F9324
:10289000AF93BF9380919F029091A002A091A1025B
:1028A000B091A2023091A3020196A11DB11D232F68
:1028B0002D5F2D3720F02D570196A11DB11D2093BE
:1028C000A30280939F029093A002A093A102B093D1
:1028D000A20280919B0290919C02A0919D02B091D6
:1028E0009E020196A11DB11D80939B0290939C02B4
:1028F000A0939D02B0939E02BF91AF919F918F9143
:102900003F912F910F900FBE0F901F9018958FB78A
:10291000F89420919F023091A0024091A102509121
:10292000A2028FBFB901CA0108959B01AC017FB714
:10293000F89480919B0290919C02A0919D02B0918D
:102940009E0266B5A89B05C06F3F19F00196A11DB8
:10295000B11D7FBFBA2FA92F982F8827860F911DF1
:10296000A11DB11D62E0880F991FAA1FBB1F6A95A8
:10297000D1F7BC012DC0FFB7F89480919B029091D4
:102980009C02A0919D02B0919E02E6B5A89B05C055
:10299000EF3F19F00196A11DB11DFFBFBA2FA92F5E
:1029A000982F88278E0F911DA11DB11DE2E0880F81
:1029B000991FAA1FBB1FEA95D1F7861B970B885E4C
:1029C0009340C8F2215030404040504068517C4F05
:1029D000211531054105510571F60895019739F02A
:1029E000880F991F880F991F02970197F1F7089593
:1029F000789484B5826084BD84B5816084BD85B5DA
:102A0000826085BD85B5816085BDEEE6F0E08081A0
:102A100081608083E1E8F0E01082808182608083C1
:102A2000808181608083E0E8F0E080818160808344
:102A3000E1EBF0E0808184608083E0EBF0E0808176
:102A400081608083EAE7F0E0808184608083808118
:102A500082608083808181608083808180688083C0
:102A60001092C10008950F931F938C01FC01868181
:102A700060E05EDE81E090E0B1DFF801868161E038
:102A800057DE81E090E0AADFF801868160E050DE49
:102A900084E690E0A3DF1F910F910895CF92DF921B
:102AA000EF92FF920F931F93CF93DF93D82EC92EEF
:102AB000282F392FC9018C01C0E0D0E0E62EFF2479
:102AC000F801878161E0F5DDB7010C2E02C0759534
:102AD00067950A94E2F76170F801878129DE2196F3
:102AE0000F5F1F4FC830D10559F78D2D9C2DBBDFCF
:102AF000DF91CF911F910F91FF90EF90DF90CF90DA
:102B00000895CF92DF92EF92FF920F931F93CF938E
:102B1000DF93D82EC92E282F392FC9018C01C0E090
:102B2000D0E0E62EFF24F801878161E0C2DDB70125
:102B30000C2E02C0759567950A94E2F76170F80152
:102B40008781F6DD21960F5F1F4FC430D10559F7FD
:102B50008D2D9C2D88DFDF91CF911F910F91FF90DC
:102B6000EF90DF90CF9008951F93CF93DF93EC0108
:102B7000162F8C81642FDCDD8D818F3F11F060E09A
:102B8000D7DD8F8584FF04C0CE01612F87DF0CC0A5
:102B9000612F70E084E0759567958A95E1F7CE0125
:102BA000B0DFCE01612FADDFDF91CF911F9108958E
:102BB00041E0DADF81E090E0089540E0D5CFEF9288
:102BC000FF920F931F93CF93DF938C017A0167706D
:102BD000660F660F660F6064F0DFC0E0D0E0D801DA
:102BE000ED91FC91D701AC0FBD1F0190F081E02D5C
:102BF000C8016C9109952196C830D10581F7DF9104
:102C0000CF911F910F91FF90EF900895FC01608983
:102C1000862F8460808B6C60CF01CFCFFC016089F0
:102C20006B7F608B6860C9CFDF93CF93CDB7DEB782
:102C300028970FB6F894DEBF0FBECDBF9C01FE01F2
:102C40003196A0EAB1E088E00D9001928150E1F761
:102C5000F9018389481710F0482F4150E42FF0E024
:102C6000EE0FFF1FEC0FFD1F8181680F6068C90127
:102C7000A4DF28960FB6F894DEBF0FBECDBFCF916C
:102C8000DF91089561E099DF80ED97E0A7CECF93C3
:102C9000DF93EC01423018F08F8588608F874B8B73
:102CA0001C8A222329F0413019F48F8584608F8794
:102CB00080E593EC93DE8C8160E03ADD8E8160E00C
:102CC00037DD8D818F3F11F060E032DD6F8564FD6F
:102CD00016C0CE0163E015DF84E991E17FDECE010D
:102CE00063E00FDF84E991E179DECE0163E009DF83
:102CF00086E990E073DECE0162E003DF11C060621E
:102D0000CE015BDF84E991E169DE6F856062CE010F
:102D100054DF86E990E062DE6F856062CE014DDFB0
:102D20006F856062CE0149DF84E0888BCE016EDF63
:102D3000CE01A8DF82E0898BCE0166E03EDFDF9125
:102D4000CF9108956F927F928F92AF92CF92EF9230
:102D50000F931F93DF93CF93CDB7DEB73C01162FB0
:102D6000842FF301448325830683E782C086A186EE
:102D700082869D8593879E8594879F859587988970
:102D8000968761E096DCF30185818F3F11F061E069
:102D900090DCF301868161E08CDC112319F0F301F2
:102DA000178603C080E1F3018787C30160E141E03A
:102DB00020E06DDFCF91DF911F910F91EF90CF90C9
:102DC000AF908F907F906F9008958F92AF92CF9237
:102DD000EF920F931F93CF93DF93DC01362F542F85
:102DE000722F102FAE2C8C2C13961C921E921297C1
:102DF0008CE991E011969C938E9300D000D0EDB7B2
:102E0000FEB73196CDB7DEB71982118212821382D6
:102E1000CD0161E0432F2FEF052FE72EC12E92DF6A
:102E20000F900F900F900F90DF91CF911F910F9106
:102E3000EF90CF90AF908F9008952AE030E040E07F
:102E400050E0FC0124833583468357830895FC01B9
:102E5000808508951F93CF93DF93EC018A85BCDCB6
:102E6000182F1B868985181731F051DD6883798307
:102E70008A839B8318C04BDD288139814A815B811D
:102E8000621B730B840B950B2C813D814E815F81FE
:102E9000621773078407950730F08885181719F0B3
:102EA000188781E08B8719878B85811181E0DF91FD
:102EB000CF911F9108950F931F938C01862FF801D6
:102EC00062878ADCF8018187808721DDF8016083D1
:102ED0007183828393831F910F91089580E00895F9
:102EE000AC018091CD02882311F081E0089580919A
:102EF000D002861708F4682F861B8093D002A09119
:102F0000CE02B091CF0220E030E070E008C0FA01BC
:102F1000E20FF31FE081E111ED932F5F3F4F261782
:102F20003707ACF3A093CE02B093CF02882311F001
:102F300080E0089581E08093AC02FD011192F0934E
:102F4000CF02E093CE020895FC0182818093CD02EE
:102F5000808180768032A9F48181813081F089304E
:102F600081F48DEA92E09093CF028093CE02868125
:102F70008093D002813218F080E28093D0028FEFEC
:102F8000089580E00895FC01138212828CEA91E09A
:102F90009183808308958091AC020895DC01809133
:102FA000AC028823C1F080E090E005C0FD01E80F8D
:102FB000F91F20830196FC01E355FD4F2081222358
:102FC00019F08032910591F71092AD02A80FB91F48
:102FD0001C921092AC020895EF92FF921F93CF9330
:102FE000DF937B01EA0101C0CAD08091DD0284FF3A
:102FF000FBCF88E0E4EAF2E0DF011D928A95E9F771
:1030000020E030E00AC0F901EC55FD4FD701A20FD6
:10301000B31F8C9180832F5F3F4F122F2C173D07DA
:1030200018F42830310579F784EA92E068E084D01A
:10303000812F90E0DF91CF911F91FF90EF90089545
:103040008F929F92AF92BF92DF92EF92FF920F9377
:103050001F93CF93DF934C015B017A018A0193E0C8
:10306000169507959A95E1F70F5F1F4FC0E0D0E0E6
:10307000DD2419C0CE010896E816F90618F048E0DC
:1030800050E003C0A7014C1B5D0B6D2D70E083E089
:10309000660F771F8A95E1F76A0D7B1DC4019CDFDF
:1030A000C80FD91FD3948D2D90E08017910710F38E
:1030B000CE01DF91CF911F910F91FF90EF90DF90A4
:1030C000BF90AF909F908F9008951F93162F01C0CF
:1030D00056D08091DD0284FFFBCFE4EAF2E088E085
:1030E000DF011D928A95E9F71093A402CF0168E0F1
:1030F00023D081E090E01F91089511D0529A20E0F2
:1031000040E45FE1A895CA010197F1F72F5F2A3FDC
:10311000C9F7529804D078941092AC020895E9E669
:10312000F0E0808182608083E89A8BE48093DE0205
:103130008AE58093DD0208951F93DC01162F8091AC
:10314000DD0284FF07C08091DE0298E88927809322
:10315000DE0203C08AE58093DD02912FEFEDF2E0FD
:103160008D91819391501916DCF38FED92E0612FD0
:103170000E94F7001C5F1093DD021F9108951F93BA
:10318000CF93DF936091EE02635067FDBCC08091E6
:10319000EB02CCE0D0E0C81BD109CE50DD4F8091CE
:1031A000EA028D3209F09DC0683009F0AAC083ECB4
:1031B0008093D2028AE5809396011092D102888191
:1031C000807639F0CE01C0DE282F8F3F09F478C019
:1031D0007EC09A811092DB028981882321F41092AB
:1031E000DC0222E066C0853019F49093EF0260C0E3
:1031F000863009F049C08B81813019F489E391E070
:103200001AC0823041F48BE491E09093ED028093F8
:10321000EC0222E235C08330F1F4992341F48FE0CF
:1032200091E09093ED028093EC0224E029C091306C
:1032300041F483E191E09093ED028093EC0222E16E
:103240001FC09230E1F485E291E09093ED0280930B
:10325000EC0224E115C0813241F48DE591E09093B8
:10326000ED028093EC0229E00BC0823241F482EF40
:1032700090E09093ED028093EC022DE101C020E0FC
:1032800080E48093D10223C0883021F421E081EFD3
:1032900092E011C0893019F49093F10209C08A308C
:1032A00011F421E006C08B3019F48BE48093DE0228
:1032B00020E08BED92E09093ED028093EC0207C04A
:1032C000888187FD2E8180E88093D10206C08F819E
:1032D000882319F48E81821708F0822F809397013A
:1032E00010C08091D10287FF0CC0CE01F9DD8F3F65
:1032F00021F48EE18093960104C0882311F010928E
:1033000097011092EE028091960184FF55C0809142
:1033100097018F3F09F450C0182F893008F018E04A
:10332000811B809397018091D20298E8892780932E
:10333000D202112371F18091D10287FF08C083ED81
:1033400092E0612FCBDD182F893080F522C02091CB
:10335000EC023091ED0286FF0AC0912FF901A3ED36
:10336000B2E084918D9331969150D9F708C0912F96
:10337000D901E3EDF2E08D9181939150E1F7C9011C
:1033800001961150810F911D1F5F9093ED02809364
:10339000EC0283ED92E0612F0E94F700612F6C5FD9
:1033A0006C3041F08FEF8093970104C08FEF8093D2
:1033B00097016EE16093960194E189B18C7031F4CC
:1033C0009150D9F71092EF021092E902DF91CF915C
:1033D0001F910895629FD001739FF001829FE00DBD
:1033E000F11D649FE00DF11D929FF00D839FF00D84
:1033F000749FF00D659FF00D9927729FB00DE11D30
:10340000F91F639FB00DE11DF91FBD01CF0111240C
:10341000089597FB092E07260AD077FD04D049D0DE
:1034200006D000201AF4709561957F4F0895F6F745
:10343000909581959F4F0895A1E21A2EAA1BBB1B60
:10344000FD010DC0AA1FBB1FEE1FFF1FA217B30770
:10345000E407F50720F0A21BB30BE40BF50B661F86
:10346000771F881F991F1A9469F76095709580954A
:1034700090959B01AC01BD01CF01089597FB092EEA
:1034800005260ED057FD04D0D7DF0AD0001C38F433
:1034900050954095309521953F4F4F4F5F4F089580
:1034A000F6F790958095709561957F4F8F4F9F4F60
:1034B0000895AA1BBB1B51E107C0AA1FBB1FA6177B
:1034C000B70710F0A61BB70B881F991F5A95A9F7CD
:1034D00080959095BC01CD010895EE0FFF1F0590DA
:1034E000F491E02D09942F923F924F925F926F9248
:1034F0007F928F929F92AF92BF92CF92DF92EF9284
:10350000FF920F931F93CF93DF93CDB7DEB7CA1B04
:10351000DB0B0FB6F894DEBF0FBECDBF09942A882F
:10352000398848885F846E847D848C849B84AA84D7
:10353000B984C884DF80EE80FD800C811B81AA8164
:10354000B981CE0FD11D0FB6F894DEBF0FBECDBF2F
:10355000ED01089511E0C0E7D1E003C0FE01BFDF37
:0C3560002296C237D107D1F7F894FFCFB4
:10356C003D00600000436F6E6E656374696E6700AA
:10357C00746F20486F73740057616974696E6720AB
:10358C00666F72006C617465737420646174612E73
:10359C002E2E002000202020200020202000202083
:1035AC0000547769747465720053637265656E209C
:1035BC0076310057616974696E6700666F722055C9
:1035CC005342202000486F7374206973206F666625
:1035DC006C696E652C00656E746572696E6720731C
:1035EC0074616E64627900000020000C030000001E
:1035FC0096FFFF0000015AFF00000000D8152C10A8
:10360C000000400014005400000000006518201851
:00000001FF
