:10000000A0C00000E0C00000C4C00000C2C00000EA
:10001000C0C00000BEC00000BCC00000BAC00000EC
:10002000B8C00000B6C00000B4C00000B2C00000FC
:10003000B0C00000AEC00000ACC00000AAC000000C
:100040000C944113A6C00000A4C00000A2C0000090
:10005000A0C000009EC000009CC000009AC000002C
:1000600098C0000096C00000000000002400270097
:100070002A0000000000250028002B0000000000DE
:1000800023002600290004040404040404040202DA
:100090000202020203030303030301020408102007
:1000A0004080010204081020010204081020000012
:1000B0000007000201000003040600000000000029
:1000C00000000600FF0901A101150026FF007508C8
:1000D0009508090082020195200900B20201C004BE
:1000E00003090412036F0062006400650076002EAD
:1000F0000061007400140344006100740061005347
:100100000074006F00720065001201100100000011
:1001100008C016D9270001010200010902220001CE
:100120000100807D09040000010300000009210195
:10013000010001221D000705810308006400340E40
:100140002F0E11241FBECFEFD8E0DEBFCDBF11E0D0
:10015000A0E0B1E0E0E0F4E302C005900D92A43A23
:10016000B107D9F713E0A4EAB1E001C01D92A030B5
:10017000B107E1F711E0C0E4D1E004C02297FE012D
:100180000E94B919CE33D107C9F70E94D80E0C943A
:10019000F41936CFA82FB92F80E090E041E050EA63
:1001A000609530E009C02D9182279795879510F0D2
:1001B00084279527305EC8F36F5FA8F30895EADFC0
:1001C0008D939D930895CF93CFB7CF93DF93C3952E
:1001D0004A9BE9F74A9B10C04A9B0EC04A9B0CC041
:1001E0004A9B0AC04A9B08C04A9B06C0C091A40112
:1001F000C395C093A4018BC06F93C091DF02DD272C
:10020000CA51DD4F2F9365E54A9B03C02F916F9133
:10021000E1CF0F931F934F9320E040E15F9309B12B
:100220000C7002FB27F93F9350E03BE039C01C7093
:1002300040642F77012F5F5F1EC0406819B11C70AA
:100240002F7752501FC0406409B12F770C70D1F145
:100250005F5F00C023C0406219B12F771C7091F11D
:100260005F5F00C025C00C701027515012F45D5F15
:100270000000115027952C3F19B1C8F61C700127BA
:10028000015027952C3FC8F64227499309B10C70BD
:1002900010274F73115027952C3FA8F64695469589
:1002A00019B11C7079F00127015027952C3F98F661
:1002B0006B5A60F3315009B1B0F600C011E01CBBBD
:1002C000002719C03B503195C31BD04011E01CBB27
:1002D0000881033C09F10B34F9F02091DD0219810A
:1002E000110F1213EDCF4A81441F093651F10D321F
:1002F00011F0013E29F70093E4023F915F914F9185
:100300001F910F912F916F91CCB3C0FD60CFDF9102
:10031000CF91CFBFCF9118952091E402222369F3AA
:100320001091E202112391F5343092F13093E20200
:100330002093DE021091DF023BE0311B3093DF029D
:1003400027C00091E20201300CF50AE54F7049F434
:100350003091720134FD1DC000937201C6ECD2E0F1
:100360001CC03091D10234FD14C00093D102C2ED03
:10037000D2E013C0052710E000C000000BB91AC07E
:10038000052710E0221F1DC010E021C04AE502C071
:1003900032ED432FC4E1D0E032E01AB11C605A9A2A
:1003A0000BB11AB95CE020E865E320FF05270BB923
:1003B000279517951C3FF0F66695B8F7B1F720FF23
:1003C00005270BB9279517951C3FD0F6279517954C
:1003D00017FF052700001C3F0BB9B0F629913A958D
:1003E00019F7037F1091E302110FC651D0400BB9EA
:1003F00011F01093DD0211E01CBB04601AB1137FF1
:10040000402F437F54E05A95F1F70BB91AB94BB915
:1004100074CFCF93DF93BC018230910510F462E07A
:1004200070E0A091FE02B091FF02ED01E0E0F0E08B
:1004300040E050E021C0888199818617970769F4D0
:100440008A819B81309719F09383828304C09093B3
:10045000FF028093FE02FE0134C06817790738F46A
:100460004115510519F08417950708F4AC01FE01F8
:100470008A819B819C01E9012097E9F6411551058C
:10048000A9F1CA01861B970B049708F4BA01E0E0B2
:10049000F0E02AC08D919C91119784179507F9F48B
:1004A0006417750781F412968D919C91139730977C
:1004B00019F09383828304C09093FF028093FE021D
:1004C000FD0132964CC0CA01861B970BFD01E80F57
:1004D000F91F6193719302978D939C9340C0FD0126
:1004E000828193819C01D9011097A1F68091FC0231
:1004F0009091FD02892B41F48091670190916801F0
:100500009093FD028093FC024091690150916A0131
:100510004115510541F44DB75EB780916501909149
:100520006601481B590B2091FC023091FD02CA0163
:10053000821B930B8617970780F0AB014E5F5F4FCE
:100540008417950750F0420F531F5093FD024093BC
:10055000FC02F9016193719302C0E0E0F0E0CF0189
:10056000DF91CF910895CF93DF93009709F450C0A6
:10057000EC0122971B821A82A091FE02B091FF0229
:10058000109709F140E050E0AC17BD0708F1BB83BC
:10059000AA83FE0121913191E20FF31FAE17BF072D
:1005A00079F48D919C911197280F391F2E5F3F4F41
:1005B0003983288312968D919C9113979B838A830C
:1005C0004115510571F4D093FF02C093FE0220C083
:1005D00012968D919C911397AD01009711F0DC015B
:1005E000D3CFFA01D383C28321913191E20FF31F5C
:1005F000CE17DF0769F488819981280F391F2E5F94
:100600003F4FFA01318320838A819B8193838283C8
:10061000DF91CF910895A0E0B0E0E1E1F3E00C9428
:10062000BF196C01009721F4CB01F3DE6C01BDC052
:100630008EEF882E8FEF982E8C0C9D1C8601060F56
:10064000171F0815190508F4AEC0F401A081B18187
:10065000A617B707B0F0A530B10508F4A6C0CD01C4
:1006600004978617970708F4A0C01297A61BB70B2C
:10067000F801A193B193D4016D937C93CF0173DF03
:1006800094C07B01EA1AFB0AEEEFFFEFEE0EFF1EAD
:1006900036016A0E7B1EC091FE02D091FF024424F7
:1006A0005524AA24BB244AC0C615D705E1F54881C4
:1006B00059814E155F05B8F1CA0104978E159F0543
:1006C000B0F41296A40FB51FF401B183A0832A8160
:1006D0003B814114510431F0D20113963C932E9387
:1006E000129763C03093FF022093FE025EC08A819E
:1006F0009B81F80193838283425050404E195F09D9
:10070000518340834114510431F0D20113961C935C
:100710000E93129704C01093FF020093FE02F4019F
:100720007183608342C088819981A816B90608F454
:100730005C012E018A819B819C01E901209709F0CF
:10074000B3CF8091FC029091FD0286159705E9F4E4
:10075000A616B706D0F42091690130916A012115DF
:10076000310541F42DB73EB7809165019091660146
:10077000281B390B02171307B0F41093FD020093E6
:10078000FC02D4016D937C9310C0CB0142DEEC01DE
:10079000009749F0F40140815181B60132D0C60181
:1007A000E2DE6E0102C0CC24DD24C601CDB7DEB787
:1007B000E0E10C94DB191F93FC0199278827BC0109
:1007C000E89411911032E9F3193010F01E30C8F39B
:1007D0001B3249F01D3241F4689405C022D0610FEC
:1007E000711D811D911D119110531A30B8F33EF403
:1007F00090958095709561957F4F8F4F9F4F1F917A
:100800000895FB01DC0102C001900D92415050405F
:10081000D8F70895FB01DC0101900D920020E1F76B
:100820000895592F482F372F262F660F771F881FBF
:10083000991F660F771F881F991F620F731F841FF0
:10084000951F660F771F881F991F08950F931F9399
:10085000182F092F4AE050E00E940B10812F902F93
:1008600060E071E00E9429101F910F910895CF92CE
:10087000DF92EF92FF920F931F93CF93DF93EC01E0
:100880006C0184E0E82EF12CEC0EFD1E8E010E5B57
:100890001F4F1CC080E392E061E09FD48CEC91E09C
:1008A00062E019D30E940918C60162E071E00E945B
:1008B00029100E941517882349F0C7010E941817B4
:1008C0008C818E3719F481E0F8018083F8018081F2
:1008D000882301F38CEC91E061E0FDD280E392E0AB
:1008E00060E07BD4DF91CF911F910F91FF90EF904B
:1008F000DF90CF900895AF92BF92CF92DF92EF92A8
:10090000FF920F931F93DF93CF93CDB7DEB76C9712
:100910000FB6F894DEBF0FBECDBF7C013BE2C32E05
:10092000D12CC80ED91EC60160E070E00E946C1088
:10093000B82E8E010F5F1F4FC801B60141E050E095
:100940000E94AC11C601B8010E94B711C8010E94F3
:10095000D51184E2B81691F190E4B91629F0E1E2DC
:10096000BE1609F03EC014C0C701C296B6010E946F
:10097000B711C60164E071E00E94501180E490E07C
:10098000E80EF91E81E0F701808380EC9FEF13C031
:10099000C701C996B6010E94B711C60164E071E0B3
:1009A0000E945011E1E4F0E0EE0EFF1E81E0F7013D
:1009B00080838FEB9FEFE80EF91E13C08E01085F56
:1009C0001F4FC801B6010E94CC1185EC91E0B8011F
:1009D000D5D7C8010E94D511C60164E071E00E941C
:1009E000501121E4A22EB12CAE0CBF1CF5012081C8
:1009F00030E090E4C92ED12CCE0CDF1CF6018081B2
:100A000090E028233923232B69F18E01015F1F4FCA
:100A100089E390E0E80EF91EC801B7010E94CC11ED
:100A20008CE092E0B8010E94630DC8010E94D511CC
:100A30008E010A5E1F4FE9EFFFEFEE0EFF1EC801A9
:100A4000B7010E94CC118CE092E0B8010E94500DD9
:100A5000C8010E94D51180E392E07CD5F501108297
:100A6000F60110826C960FB6F894DEBF0FBECDBFB4
:100A7000CF91DF911F910F91FF90EF90DF90CF907A
:100A8000BF90AF9008958F929F92AF92BF92DF92E6
:100A9000EF92FF920F931F93DF93CF93CDB7DEB703
:100AA00027970FB6F894DEBF0FBECDBF5C010E9442
:100AB00009180E941517882339F185010C5F1F4F13
:100AC000C8010E941817F501D48044E2842E912CAD
:100AD0008A0C9B1C7E010894E11CF11CC701B80123
:100AE0000E943711C401B7010E94B711C7010E94CB
:100AF000D511FDE3DF1619F4C501FDDE05C0C50102
:100B00008B96B4010E94001127960FB6F894DEBFB1
:100B10000FBECDBFCF91DF911F910F91FF90EF904E
:100B2000DF90BF90AF909F908F900895EF92FF92CB
:100B30000F931F938C010E940D1754E0E52E51E096
:100B4000F52EC8018496B7010E943711C8018B9613
:100B5000B7010E943711C801C296B7010E94371130
:100B6000C801C996B7010E9437110E94C717005CDF
:100B70001F4FF8011192119210821F910F91FF9057
:100B8000EF900895EF92FF920F931F93CF93DF930F
:100B9000EC0185EC91E04CD5882309F448C00E9413
:100BA00089137B018C018A899B89AC89BD89A80145
:100BB0009701281B390B4A0B5B0B8B8D9C8DAA2749
:100BC00097FDA095BA2F82179307A407B50778F56C
:100BD000EA8AFB8A0C8B1D8B8E8D9D8D8F3F01F1D8
:100BE000913061F0913018F09230B1F40EC02DA127
:100BF00085EC91E0622F40E020950DC04DA1642F5F
:100C0000609585EC91E020E006C02DA1422F409533
:100C100085EC91E060E00CD68E8D8F5F8E8F07C0E3
:100C20001E8E892F8F5F8D8F833009F41D8EDF918B
:100C3000CF911F910F91FF90EF900895AF92BF92C7
:100C4000CF92DF92EF92FF920F931F93CF93DF9398
:100C5000EC0185EC91E0EFD48823B9F185EC91E0CB
:100C6000F0D4882391F10E9489135B016C018E8579
:100C70009F85A889B98986017501E81AF90A0A0BC6
:100C80001B0B85EC91E0DAD490E0A0E0B0E08E158B
:100C90009F05A007B107C8F4AE86BF86C88AD98A67
:100CA0008EAD843031F41EAE85EC91E060E0CCD4A2
:100CB0000CC080FD04C085EC91E0ACD503C085EC90
:100CC00091E09AD58EAD8F5F8EAFDF91CF911F915E
:100CD0000F91FF90EF90DF90CF90BF90AF9008956D
:100CE0002F923F924F925F926F927F928F929F923C
:100CF000AF92BF92CF92DF92EF92FF920F931F932A
:100D0000DF93CF9300D000D00F92CDB7DEB79D8395
:100D10008C83242E2983602E77248824992400D064
:100D200000D070E080E090E0EDB7FEB761827282A3
:100D30008382948220E030E040E050E0FFEFEF2E2D
:100D4000F12C012D112DAA24BB2465010E94E40E73
:100D50006B83332444245524EDB7FEB7618272823D
:100D600083829482C201B10120E030E040E050E093
:100D70000E94E40E262EF9816F2F70E080E090E053
:100D8000EDB7FEB7618272828382948220E030E008
:100D900040E050E00E94E40E662EFB816F2F70E071
:100DA00080E090E0EDB7FEB71182128213821482C8
:100DB00020E030E040E050E0EFEFAE2EB12CC12C4F
:100DC000D12C0E94E40E6A83332444245524EDB7C9
:100DD000FEB71182128213821482C201B10120E097
:100DE00030E040E050E0F0D7562E77248824992454
:100DF000EDB7FEB71182128213821482C401B301CF
:100E000020E030E040E050E0DFD72A81EC81FD8136
:100E1000278F50A261A30F900F900F900F908781A2
:100E20006A8170E00E94FD11EC81FD8160A18085E6
:100E300070E00E94FD11EC81FD8161A1818570E06F
:100E40000E94FD110F900F900F900F900F90CF9177
:100E5000DF911F910F91FF90EF90DF90CF90BF90A7
:100E6000AF909F908F907F906F905F904F903F904A
:100E70002F900895FC0184810E94DB1162E070E0F4
:100E80000E945319CB0108950F931F93CF93DF93C3
:100E90008C01EC01A696CE010E947416882331F0D5
:100EA000CE010E947116882381F00EC0E801E296FF
:100EB000CE010E947416882349F0CE010E9471165B
:100EC000882311F482E002C001C081E0DF91CF915C
:100ED0001F910F910895DF92EF92FF920F931F934E
:100EE000CF93DF93EC01DD24D394613041F0613086
:100EF00018F0623071F508C0888160E002C0888116
:100F000061E00E949A1225C00E9489137B018C0126
:100F10008A859B85AC85BD85A8019701281B390B67
:100F20004A0B5B0B8E899F89AA2797FDA095BA2F44
:100F300082179307A407B50760F4EA86FB860C873F
:100F40001D87888D882311F0188E01C0D88E688D7A
:100F5000CCCFDF91CF911F910F91FF90EF90DF9059
:100F60000895AF92BF92CF92DF92EF92FF920F93CC
:100F70001F93DF93CF93CDB7DEB768970FB6F89482
:100F8000DEBF0FBECDBF7C01B6E2CB2ED12CC80E8A
:100F9000D91EC6010E946716A2E3AA2EB12CAE0C80
:100FA000BF1CC5010E94671682E190E0F7019183A2
:100FB000808384E0828381E183838EE084838FE079
:100FC000858380E1868389E0878385E0808786E06A
:100FD00081878FE061E00E949A12F701858161E0CC
:100FE0000E945B12F701808161E00E945B12F701B1
:100FF000868161E00E945B12F701828160E00E94BD
:101000005B12F701838160E00E945B12F701878128
:1010100061E00E945B12F701808561E00E945B1233
:10102000F701818561E00E945B128E010F5F1F4F07
:10103000C8010E946716D601F8018CE001900D925C
:101040008150E1F78E01035F1F4FC8010E946716B0
:10105000D701D296F8018CE001900D928150E1F712
:10106000F7016281772767FD7095C6010E94A5167A
:10107000F7016381772767FD7095C5010E94A5166A
:10108000F701128613861486158616861786108A2F
:10109000118A128A138A148A158A84EF91E0978B39
:1010A000868B108E118E158E168E15A216AE17AE6B
:1010B00068960FB6F894DEBF0FBECDBFCF91DF911B
:1010C0001F910F91FF90EF90DF90CF90BF90AF9066
:1010D0000895FC01738B628B0895FF920F931F9309
:1010E000CF93DF938C01F62E8EEA91E060E04F2DD6
:1010F0000E94CE15C0E0D0E006C08EEA91E065E027
:1011000071E0A5D72196F801808191818C179D0708
:10111000A4F78EEA91E060E04F2D0E94CE15DF919A
:10112000CF911F910F91FF90089585EC91E060E0C1
:10113000EBD369E170E080E090E00E949713F5CF77
:10114000CF93DF93EC01662389F18EEA91E00E9450
:10115000F6158EEA91E060E040E00E94CE158EEA3E
:1011600091E067E071E073D78EEA91E060E041E0E2
:101170000E94CE158EEA91E068E171E068D760EADE
:101180007FE080E090E00E9497138EEA91E00E9459
:10119000F61585EC91E060E0B7D38D8560E00E94A4
:1011A0009A128EEA91E00E94C81514C08D8561E004
:1011B0000E949A1285EC91E060E046E92FEF38D367
:1011C00085EC91E06FEFA0D38EEA91E00E94C0150C
:1011D000CE01ABDFDF91CF910895CF93DF93EC0188
:1011E0006623F1F474C08EEA91E00E94F6158EEA4F
:1011F00091E066E040E00E94CE158EEA91E069E25F
:1012000071E025D78EEA91E066E041E00E94CE15BC
:101210008EEA91E064E371E01AD781E08F8318864B
:101220008F81882301F388858130F9F0813020F0A7
:10123000823009F066C036C08EEA91E060E041E09D
:101240000E94CE158EEA91E06CE371E000D78EEA41
:1012500091E061E040E00E94CE158EEA91E060E00E
:1012600026D68EEA91E061E018C08EEA91E060E057
:1012700040E00E94CE158EEA91E061E471E0E7D68D
:101280008EEA91E060E041E00E94CE158EEA91E0A6
:1012900062E00DD68EEA91E063E009D688858F5F23
:1012A00088872FC08EEA91E060E041E00E94CE1571
:1012B0008EEA91E065E471E0CAD68EEA91E064E0DE
:1012C000F6D58EEA91E065E0F2D518861AC08EEA6E
:1012D00091E00E94F6158EEA91E060E040E00E9405
:1012E000CE158EEA91E068E471E0B1D68EEA91E025
:1012F00060E041E00E94CE158EEA91E064E571E085
:10130000A6D6DF91CF910895CF92DF92EF92FF9210
:101310000F931F93DF93CF93CDB7DEB72E970FB602
:10132000F894DEBF0FBECDBF6C01FC01078510E055
:101330008CE092E091D3F60120813181821B930BE6
:101340000817190734F57E010894E11CF11CC70148
:101350006CE072E091D3F60147858E01085F1F4F64
:1013600020813181240F311DC801B70150E0AFD772
:10137000C701B801FCD7C8010E94D5118EEA91E0DF
:10138000B70178D6F60187858F5F8787C7010E94EE
:10139000D511F601078510E08CE092E05DD3F601EF
:1013A00020813181821B930B0817190719F484815E
:1013B0008F5F84832E960FB6F894DEBF0FBECDBF2D
:1013C000CF91DF911F910F91FF90EF90DF90CF9021
:1013D00008950F931F93DF93CF93CDB7DEB7279771
:1013E0000FB6F894DEBF0FBECDBF8C01FC01148296
:1013F0008CE092E035D3882361F081E0F8018683A8
:1014000085830E948913F801618772878387948797
:1014100002C0F8011682C80161E05FDE8E010F5F35
:101420001F4FC8016CE072E061D38EEA91E0B80111
:1014300021D6C801BAD785EC91E061E005D12796A5
:101440000FB6F894DEBF0FBECDBFCF91DF911F91D5
:101450000F910895EF92FF920F931F93CF93DF9315
:10146000EC018E81882309F46EC08C81813079F182
:10147000813020F0823009F066C047C08D8188231A
:1014800019F10E9489137B018C0189859A85AB85AE
:10149000BC85A8019701281B390B4A0B5B0B8A817D
:1014A0009B81AA2797FDA095BA2F82179307A407BF
:1014B000B50708F048C0E986FA860B871C878C813F
:1014C0008F5F8C831F863FC0CE0183DF3CC00E94AC
:1014D00089137B018C0189859A85AB85BC85A80120
:1014E0009701281B390B4A0B5B0B8A899B89A0E06B
:1014F000B0E082179307A407B50728F5E986FA86B6
:101500000B871C87CE0100DF1EC00E9489137B0160
:101510008C0189859A85AB85BC85A8019701281B1C
:10152000390B4A0B5B0B8A819B81AA2797FDA095FB
:10153000BA2F82179307A407B50728F4E986FA861D
:101540000B871C871C82DF91CF911F910F91FF9019
:10155000EF900895EF92FF920F931F93DF93CF9335
:10156000CDB7DEB727970FB6F894DEBF0FBECDBF5D
:101570007C0160E0B2DD8E010F5F1F4FC8016CE09F
:1015800072E084D28EEA91E0B80174D5C8010DD71B
:10159000C7011FDF27960FB6F894DEBF0FBECDBF81
:1015A000CF91DF911F910F91FF90EF9008950F93CE
:1015B0001F938C01FC0171836083858561E0BAD73C
:1015C0008EEA91E0F801608142E020E00E94FB1584
:1015D00080EA9FE0F8019383828317821086118648
:1015E00012861386148680E190E096878587178699
:1015F000108A118A138A128A88EB9BE0958B848B60
:1016000080ED97E0978B868B108E118E128E138E45
:101610001F910F910895FC018FEF8083118288EC58
:1016200090E093838283148284E6858316820895F2
:10163000FC0181810895FC0184810895FC0185816C
:101640000895FC0186810895FC0166830895CF9278
:10165000DF92EF92FF920F931F93DF93CF93CDB75B
:10166000DEB72E970FB6F894DEBF0FBECDBF7C015C
:101670006B018E010F5F1F4FC80140E050E06CD638
:10168000C8014CD5611571058105910519F4F70163
:10169000118203C081E0F70181838E01085F1F4F33
:1016A000C801B60141E050E023E030E010D6C801A7
:1016B00035D5F70173836283C80177D6CE010196D1
:1016C00074D62E960FB6F894DEBF0FBECDBFCF9165
:1016D000DF911F910F91FF90EF90DF90CF900895D1
:1016E0006F927F928F929F92AF92BF92CF92DF9232
:1016F000EF92FF920F931F93DF93CF93CDB7DEB797
:10170000A3970FB6F894DEBF0FBECDBF5C013B01BF
:101710008E010F5F1F4FC80140E050E01DD6C80189
:10172000FDD4611571058105910519F4F501148247
:1017300003C081E0F501848328E0822E912C8C0E79
:101740009D1EC401B30141E050E023E030E0BFD56D
:10175000C401E4D4F50165839FE0C92ED12CCC0EE1
:10176000DD1EC601B30144E050E026E030E0AFD515
:1017700086E1E82EF12CEC0EFD1EC701B30147E017
:1017800050E029E030E0A3D58E01035E1F4FC80171
:10179000B3014AE050E02CE030E099D5C601BED458
:1017A000A62EC701BBD4B62EC801B8D4A0926E0134
:1017B000B0926F0160937001C801F7D5C701F5D5EC
:1017C000C601F3D5C401F1D5CE010196EED5A3969D
:1017D0000FB6F894DEBF0FBECDBFCF91DF911F9142
:1017E0000F91FF90EF90DF90CF90BF90AF909F90C0
:1017F0008F907F906F9008950F93FC018CEC91E097
:1018000060916E0140916F0120917001008168DA52
:101810000F9108950F93FC018CEC91E060916B01A6
:1018200040916C0120916D0100815ADA0F91089569
:101830000F93FC0160936B0140936C0120936D0149
:101840008CEC91E000814CDA0F9108958F929F9279
:10185000AF92BF92CF92DF92EF92FF920F931F93BE
:10186000DF93CF93CDB7DEB765970FB6F894DEBFA1
:101870000FBECDBF4C018B015E010894A11CB11CB1
:10188000C50140E050E022E030E021D548E0C42E20
:10189000D12CCC0EDD1EC601B80143E050E025E09E
:1018A00030E015D53FE0E32EF12CEC0EFD1EC70114
:1018B000B80146E050E028E030E009D5C5012ED45B
:1018C000062FC6012BD4162FC70128D4262FC401FA
:1018D000602F412FADDFC70168D5C60166D5C501B0
:1018E00064D565960FB6F894DEBF0FBECDBFCF911D
:1018F000DF911F910F91FF90EF90DF90CF90BF90FD
:10190000AF909F908F9008950F93FC01062F6083F6
:101910008CEC91E060916B0140916C0120916D0124
:10192000DFD90F910895EF92FF920F931F93DF93EA
:10193000CF93CDB7DEB727970FB6F894DEBF0FBEB3
:10194000CDBF7C018E010F5F1F4FC80140E050E00A
:1019500022E030E0BCD4C801E1D3C701D5DFC80123
:1019600024D527960FB6F894DEBF0FBECDBFCF911A
:10197000DF911F910F91FF90EF900895AF92BF926A
:10198000DF92EF92FF920F931F93DF93CF93CDB728
:10199000DEB7A3970FB6F894DEBF0FBECDBF5C01D4
:1019A0007B01CB0160E070E097D3D82E8E010F5FF2
:1019B0001F4FC801B70141E050E0CED4C701B801C4
:1019C000D6D4C801F2D483E6D816B9F08D1520F02C
:1019D00082E6D81689F507C084E6D816C1F085E6F8
:1019E000D81651F51EC08E01085F1F4FC801B70100
:1019F000D3D4C501B80197DF1DC08E01015F1F4F11
:101A0000C801B701C9D4C501B80120DF13C08E01D8
:101A10000A5E1F4FC801B701BFD4C501B80160DE1F
:101A200009C08E01035E1F4FC801B701B5D4C501BF
:101A3000B8010DDEC801B9D4A3960FB6F894DEBF85
:101A40000FBECDBFCF91DF911F910F91FF90EF900F
:101A5000DF90BF90AF900895FC018485958508952F
:101A6000FC0140E0808190E0248535858217930752
:101A700008F441E0842F08950F931F938C01685F51
:101A80007F4F8AD4C8011F910F9108950F931F9320
:101A90008C016F5F7F4F80D4C8011F910F91089513
:101AA000EF92FF920F931F937B018C01085F1F4FF2
:101AB0004696B8015CD4C801B70159D41F910F9163
:101AC000FF90EF900895EF92FF920F931F937B0189
:101AD0008C010F5F1F4F0F96B80149D4C801B701A1
:101AE00046D41F910F91FF90EF900895CF92DF920F
:101AF000EF92FF920F931F93DF93CF93CDB7DEB793
:101B000027970FB6F894DEBF0FBECDBF6C01FB0167
:101B10008081282F30E084859585685F7F4F281766
:101B2000390710F0C60115C08DE1E82EF12CEE0E3C
:101B3000FF1E215030408E010F5F1F4FC80140E053
:101B400050E0C5D3C701B80112D4C8012ED4C601D4
:101B5000B70122D4C60127960FB6F894DEBF0FBE98
:101B6000CDBFCF91DF911F910F91FF90EF90DF904C
:101B7000CF900895DF92EF92FF920F931F938C0105
:101B8000D62E93E6E92E91E0F92EC8010196B70111
:101B90006ED3C8010896B7016AD3C8010F96B70182
:101BA00066D3C8014696B70162D3C8014D96B70106
:101BB0005ED3F801D0821F910F91FF90EF90DF90DC
:101BC0000895CF92EF920F938130910521F56F5FC9
:101BD0007F4F09F040C08EEA91E067E048E02DE0D9
:101BE0000AE05BE0E52E3CE0C32E70D785EC91E087
:101BF00012DD8CEC91E0B5D98CE092E060E170E010
:101C0000B9DF80E392E060E170E0D1DC8CE492E047
:101C10000E94960520C0892BF1F46F5F7F4FD9F4A5
:101C200085E892E0C2D38EE792E0BFD387E792E0E7
:101C3000BCD380E792E0B9D389E292E0B6D382E2E6
:101C400092E0B3D38BE192E0B0D384E192E0ADD3E4
:101C50008DE092E0AAD30F91EF90CF90089580E0AD
:101C600090E06FEF7FEFADCF81E090E06FEF7FEF1F
:101C7000A8CF8CEC91E008D9682F882321F08CE460
:101C800092E00C942604089580E392E060E058DA34
:101C90008CE492E00C94370480E392E061E050DA47
:101CA0008CEC91E060E017D90CC00E9409180ED0AE
:101CB0008091A501882329F480E392E060E040DA76
:101CC000E3DF8091A501882381F70895EF92FF92C9
:101CD0000F931F931ED57B018C012091A40180914D
:101CE000AA019091AB01A091AC01B091AD01B801F6
:101CF000A701481B590B6A0B7B0BDB01CA01855FEF
:101D00009140A040B04058F130E040E050E0E09217
:101D1000AA01F092AB010093AC011093AD01809148
:101D2000A6019091A701A091A801B091A90128173F
:101D300039074A075B0749F48091A501882379F4A4
:101D400081E08093A501A8DF0AC02093A60130930B
:101D5000A7014093A8015093A9011092A5011F91DA
:101D60000F91FF90EF9008958FCF0895EF92FF921B
:101D70000F931F938CE492E00E9443057ADF0CECF2
:101D800011E0C80177D8BC01E0E3EE2EE2E0FE2EC0
:101D9000C7019FD9C8010E94C205C7015BDBC8010A
:101DA0000E941E0693DF1F910F91FF90EF90089500
:101DB000CF93DF931FD5D8DFC0E0D0E0D7DF2097E7
:101DC000E9F30E940000FACF2F923F924F925F9268
:101DD0006F927F928F929F92AF92BF92CF92DF923B
:101DE000EF92FF920F931F93DF93CF93CDB7DEB7A0
:101DF0003B014C0119012A016D897E898F89988DDB
:101E00006A197B098C099D09621A730A840A950A6A
:101E1000A40193010E943419E218F308040915097A
:101E2000A80197010E9488192A0D3B1D4C1D5D1DBC
:101E3000B901CA01CF91DF911F910F91FF90EF90EF
:101E4000DF90CF90BF90AF909F908F907F906F90DA
:101E50005F904F903F902F900895CF92DF92EF9236
:101E6000FF920F931F93CF93DF937C016B018A0145
:101E7000C0E0D0E00FC0D6016D916D01D701ED91AA
:101E8000FC910190F081E02DC7010995C80FD91F81
:101E9000015010400115110571F7CE01DF91CF916E
:101EA0001F910F91FF90EF90DF90CF900895DC018C
:101EB000ED91FC910190F081E02D09950895EF924C
:101EC000FF920F931F938C01DC01ED91FC91019027
:101ED000F081E02D6DE009957C01D801ED91FC9138
:101EE0000190F081E02DC8016AE009959C012E0D5A
:101EF0003F1DC9011F910F91FF90EF900895CF935F
:101F0000DF93EC016115710519F420E030E00FC09A
:101F1000DB010D900020E9F71197A61BB70BE881B4
:101F2000F9810280F381E02DAD0109959C01C90181
:101F3000DF91CF9108954F925F927F928F929F92FF
:101F4000AF92BF92CF92DF92EF92FF920F931F93C7
:101F5000DF93CF93CDB7DEB7A1970FB6F894DEBF6E
:101F60000FBECDBF2C01742ECB01223008F42AE025
:101F700019A231E2C32ED12CCC0EDD1E822E992463
:101F8000AA24BB24672D752FA50194010E94661910
:101F900079018A01C801B701A50194010E94341991
:101FA000472D461B0894C108D1084A3014F4405DFF
:101FB00001C0495CF6014083E114F10401051105FB
:101FC00021F07E2C5F2DC801DDCFC201B60197DF65
:101FD000A1960FB6F894DEBF0FBECDBFCF91DF91B3
:101FE0001F910F91FF90EF90DF90CF90BF90AF9037
:101FF0009F908F907F905F904F900895DC01211506
:10200000310541F4ED91FC910190F081E02D642FB8
:102010000995089590CFCF92DF92EF92FF920F93A0
:102020001F936C01E62E9A01FF2400E010E0B80136
:10203000A701E4DF8C01C60142DF080F191FC801A8
:102040001F910F91FF90EF90DF90CF90089557CFA1
:102050000895EF92FF920F931F937C0150DF8C0144
:10206000C7012DDF080F191FC8011F910F91FF90A5
:10207000EF900895AF92BF92CF92DF92EF92FF92CE
:102080000F931F93CF93DF935C016B01EE24FF242A
:10209000C0E0D0E00FC0D501ED91FC91008111812D
:1020A000C601BE012AD0682FC501F8010995E80EC6
:1020B000F91E2196F60184819581C817D90758F336
:1020C000C701DF91CF911F910F91FF90EF90DF90AB
:1020D000CF90BF90AF900895FC01848195816817DF
:1020E000790748F40190F081E02D309721F0E60F58
:1020F000F71F8081089580E00895FC018481958117
:102100006817790748F40190F081E02D309721F0AD
:10211000E60FF71F8081089580E00895FC0180811B
:102120009181009729F420E030E040E050E004C0C5
:102130000E94DB039B01AC01B901CA0108950F9312
:102140001F93CF93DF93EC018B016F5F7F4F8881EB
:1021500099810E940B03009711F480E005C09983D8
:1021600088831B830A8381E0DF91CF911F910F91B8
:102170000895CF93DF93EC0188819981892B29F011
:102180008A819B818617970758F4CE01D8DF882370
:1021900041F08C819D81892B19F4E881F9811082AD
:1021A00081E0DF91CF910895EF92FF920F931F93FB
:1021B000CF93DF93EC017B016C817D81E114F1040D
:1021C000B9F04115510591F08A01060F171FB801AA
:1021D000D0DF882369F0888199812C813D81820F2D
:1021E000931FB7010E940A041D830C8381E001C084
:1021F00080E0DF91CF911F910F91FF90EF900895B4
:10220000FB016081718144815581CECFCF93DF93F3
:10221000EC0188819981009711F00E94B302198224
:1022200018821D821C821B821A82DF91CF91089531
:10223000EF92FF920F931F93CF93DF93EC017B01FB
:102240008A01BA0196DF882319F4CE01DFDF07C0C7
:102250001D830C8388819981B7010E940A04CE01F5
:10226000DF91CF911F910F91FF90EF900895CF9341
:10227000DF93EC01198218821B821A821D821C8254
:102280001E826115710549F0DB010D900020E9F710
:102290001197A61BB70BAD01CBDFDF91CF9108954E
:1022A0000F931F93182F092F6115710551F0DB0152
:1022B0000D900020E9F71197A61BB70BAD01B8DF11
:1022C00001C0A4DF812F902F1F910F910895BF921D
:1022D000CF92DF92EF92FF920F931F93CF93DF93F2
:1022E000082FB92E6B017A01E9012417350710F484
:1022F000EA017901802F9B2D64E671E0B8DFD601F9
:1023000014968D919C9115978E159F05C8F08C178A
:102310009D0708F4EC01D601ED91FC911197EC0FAB
:10232000FD1F108110826D917C916E0D7F1D802F9D
:102330009B2DB6DFD601ED91FC91EC0FFD1F1083B4
:10234000802F9B2DDF91CF911F910F91FF90EF90E8
:10235000DF90CF90BF9008950F931F938C01FB01E6
:1023600024813581B4DFC8011F910F910895CF9367
:10237000DF93EC01FB018617970751F060817181B3
:102380006115710521F04481558152DF01C03EDFA6
:10239000CE01DF91CF910895FC011182108213824A
:1023A0001282158214821682E2CFFC018081918113
:1023B0000C94B3020895982F8E3008F09E509770B9
:1023C000809171018295880F880F807C892B809382
:1023D0007C0080917A00806480937A0080917A00FA
:1023E00086FDFCCF2091780040917900942F80E009
:1023F00030E0282B392BC90108951F93CF93DF9329
:10240000182FEB0161E057D0209709F44AC0CF3F65
:10241000D10509F449C0E12FF0E0E255FF4F849166
:102420008330C1F0843028F4813051F08230B1F52E
:102430000CC0863019F1873049F1843079F514C029
:1024400084B5806884BDC7BD32C084B5806284BD58
:10245000C8BD2DC080918000806880938000D0939B
:102460008900C093880023C080918000806280939F
:102470008000D0938B00C0938A0019C08091B00077
:1024800080688093B000C093B30011C08091B00009
:1024900080628093B000C093B40009C0C038D105F9
:1024A0001CF4812F60E002C0812F61E043D0DF91F6
:1024B000CF911F910895CF93DF93482F50E0CA0129
:1024C00086569F4FFC0134914A575F4FFA01849121
:1024D000882369F190E0880F991FFC01E859FF4FAC
:1024E000A591B491FC01EE58FF4FC591D49166239C
:1024F00051F42FB7F8948C91932F909589238C9356
:10250000888189230BC0623061F42FB7F8948C91D5
:10251000932F909589238C938881832B88832FBF59
:1025200006C09FB7F8948C91832B8C939FBFDF914B
:10253000CF910895482F50E0CA0182559F4FFC016A
:102540002491CA0186569F4FFC0194914A575F4FD0
:10255000FA013491332309F440C0222351F123308E
:1025600071F0243028F42130A1F0223011F514C08C
:102570002630B1F02730C1F02430D9F404C0809166
:1025800080008F7703C0809180008F7D80938000D2
:1025900010C084B58F7702C084B58F7D84BD09C01B
:1025A0008091B0008F7703C08091B0008F7D8093C1
:1025B000B000E32FF0E0EE0FFF1FEE58FF4FA591A4
:1025C000B4912FB7F894662321F48C9190958923C8
:1025D00002C08C91892B8C932FBF0895682F70E0D7
:1025E000CB0182559F4FFC012491CB0186569F4F12
:1025F000FC0144916A577F4FFB019491992319F490
:1026000020E030E03CC0222351F1233071F024302F
:1026100028F42130A1F0223011F514C02630B1F099
:102620002730C1F02430D9F404C0809180008F7726
:1026300003C0809180008F7D8093800010C084B59E
:102640008F7702C084B58F7D84BD09C08091B000B2
:102650008F7703C08091B0008F7D8093B000892F69
:1026600090E0880F991F84589F4FFC01A591B49169
:102670008C9120E030E0842311F021E030E0C901AA
:1026800008951F920F920FB60F9211242F933F932C
:102690008F939F93AF93BF938091930290919402F5
:1026A000A0919502B0919602309197020196A11DDA
:1026B000B11D232F2D5F2D3720F02D570196A11D21
:1026C000B11D209397028093930290939402A0935C
:1026D0009502B093960280918F0290919002A09102
:1026E0009102B09192020196A11DB11D80938F02BB
:1026F00090939002A0939102B0939202BF91AF91F8
:102700009F918F913F912F910F900FBE0F901F902F
:1027100018958FB7F89420919302309194024091CC
:102720009502509196028FBFB901CA0108959B018D
:10273000AC017FB7F89480918F0290919002A091A4
:102740009102B091920266B5A89B05C06F3F19F047
:102750000196A11DB11D7FBFBA2FA92F982F8827E1
:10276000860F911DA11DB11D62E0880F991FAA1F40
:10277000BB1F6A95D1F7BC012DC0FFB7F8948091BB
:102780008F0290919002A0919102B0919202E6B5D1
:10279000A89B05C0EF3F19F00196A11DB11DFFBF19
:1027A000BA2FA92F982F88278E0F911DA11DB11D1B
:1027B000E2E0880F991FAA1FBB1FEA95D1F7861B7D
:1027C000970B885E9340C8F2215030404040504003
:1027D00068517C4F211531054105510571F6089569
:1027E000019739F0880F991F880F991F0297019759
:1027F000F1F70895789484B5826084BD84B58160D2
:1028000084BD85B5826085BD85B5816085BDEEE6F8
:10281000F0E0808181608083E1E8F0E010828081D7
:1028200082608083808181608083E0E8F0E0808145
:1028300081608083E1EBF0E0808184608083E0EB65
:10284000F0E0808181608083EAE7F0E0808184604D
:1028500080838081826080838081816080838081A9
:10286000806880831092C10008950F931F938C019C
:10287000FC01858561E05EDEF801858560E05ADE59
:102880001F910F910895BF92CF92DF92EF92FF9226
:102890000F931F93CF93DF93D82EC92EB42E282FDA
:1028A000392FC9018C01C0E0D0E0E62EFF240CC016
:1028B000B7010C2E02C0759567950A94E2F7617016
:1028C000F801858537DE21960F5F1F4FCB1580F30A
:1028D0008D2D9C2DCADFDF91CF911F910F91FF901D
:1028E000EF90DF90CF90BF9008950F931F93CF93F9
:1028F000DF93EC01162F042F60E0413009F461E012
:102900008B8518DE8C858F3F11F060E013DE02307E
:1029100089F08C8184FF04C0CE01612F48E00DC096
:10292000612F70E084E0759567958A95E1F7CE0197
:1029300044E0A9DFCE01612F44E0A5DFDF91CF9114
:102940001F910F9108956F927F928F92AF92CF92C5
:10295000EF920F931F93DF93CF93CDB7DEB73C0178
:10296000162F8E2DF301438724870587E686C786B9
:10297000A08A818A9D85928B9E85938B9F85948B5F
:102980009889958B61E097DDF301878561E093DDA0
:10299000F301808961E08FDDF301818961E08BDDE6
:1029A000112381F4F301828961E085DDF3018389DC
:1029B00061E081DDF301848961E07DDDF3018589DA
:1029C00061E079DDF301838561E075DDF3018485E4
:1029D0008F3F11F061E06FDDF301858561E06BDD14
:1029E000112319F0F301148203C080E1F301848301
:1029F000F301838560E09EDDF301858560E09ADD6B
:102A0000F30184858F3F11F060E094DD8FEFF301D7
:102A1000868B12861186CF91DF911F910F91EF90D7
:102A2000CF90AF908F907F906F900895DF92EF924C
:102A3000FF920F931F938C01D62E7A01862F61E0AF
:102A40003ADDD8015696DC9256971A96FC92EE9291
:102A50001997ED91FC910084F185E02DC80160E0AB
:102A600009951F910F91FF90EF90DF900895DC0181
:102A7000362F56962C9156972F3F39F1E22FF0E0E2
:102A8000E255FF4FE491EE2379F019968D919C91D8
:102A90001A97892B19F4822F70E005C06FEF70E050
:102AA000631B7109822FA9CC19968D919C911A975D
:102AB000662319F0892B31F402C0019719F4822F93
:102AC00061E038CD822F60E035CD08956F927F921E
:102AD0008F92AF92BF92CF92DF92EF92FF920F93BD
:102AE0001F933C01162FF42ED22EB02EAE2C8C2C20
:102AF0002BD088E791E0D3018D939C9300D000D038
:102B0000EDB7FEB73196ADB7BEB711961C921182E4
:102B100012821382C30161E0412F2FEF0F2DED2CA4
:102B2000CB2C11DF0F900F900F900F901F910F91F2
:102B3000FF90EF90DF90CF90BF90AF908F907F90FD
:102B40006F90089508950895FC011382128288E819
:102B500091E0918380830895FC01A081B181189652
:102B60002D913C9119976FEFF90109950895DC01BA
:102B7000ED91FC910284F385E02D40E009950895E4
:102B8000FC016581862F846085836C60CF01EFCF67
:102B9000FC0165816B7F65836860E9CFDC01179676
:102BA0009C911797491710F0492F415018968C9116
:102BB0001897803139F4943029F4E42FF0E0EC5682
:102BC000FE4F04C0E42FF0E0E856FE4F8081680F0E
:102BD0006068CD01CCCFDC01ED91FC910284F385DE
:102BE000E02D41E0099581E090E0089561E0BFDFCC
:102BF00080ED97E0F5CDCF93DF93EC01423018F0F4
:102C00008C8188608C834F836887222329F0413030
:102C100019F48C8184608C8364E670E080E090E03D
:102C200086DD6C8164FD2EC0E881F9810284F38524
:102C3000E02DCE0163E042E0099584E991E1D0DD29
:102C4000E881F9810284F385E02DCE0163E042E062
:102C5000099584E991E1C4DDE881F9810284F38575
:102C6000E02DCE0163E042E0099586E990E0B8DD11
:102C7000E881F9810284F385E02DCE0162E042E033
:102C8000099511C06062CE0172DF84E991E1A8DD8F
:102C90006C816062CE016BDF86E990E0A1DD6C8122
:102CA0006062CE0164DF6C816062CE0160DF84E02F
:102CB0008D83CE0165DFCE0199DF82E08E83CE0168
:102CC00066E055DFCE0148DFDF91CF9108952AE01D
:102CD00030E040E050E0FC01248335834683578395
:102CE0000895FC01808508951F93CF93DF93EC0135
:102CF0008A8574DC182F1B868985181731F009DD49
:102D0000688379838A839B8318C003DD2881398196
:102D10004A815B81621B730B840B950B2C813D8177
:102D20004E815F81621773078407950730F08885AD
:102D3000181719F0188781E08B8719878B85811107
:102D400081E0DF91CF911F9108950F931F938C0124
:102D5000862FF801628742DCF80181878087D9DC01
:102D6000F80160837183828393831F910F9108958B
:102D700080E00895AC018091C102882311F081E0C8
:102D800008958091C402861708F4682F861B8093EB
:102D9000C402A091C202B091C30220E030E070E012
:102DA00008C0FA01E20FF31FE081E111ED932F5FFC
:102DB0003F4F26173707ACF3A093C202B093C3026C
:102DC000882311F080E0089581E08093A002FD0146
:102DD0001192F093C302E093C2020895FC01828134
:102DE0008093C102808180768032A9F48181813014
:102DF00081F0893081F481EA92E09093C30280935C
:102E0000C20286818093C402813218F080E28093EE
:102E1000C4028FEF089580E00895FC0113821282AE
:102E200080EA91E09183808308958091A0020895C3
:102E3000DC018091A0028823C1F080E090E005C011
:102E4000FD01E80FF91F20830196FC01EF55FD4FAE
:102E50002081222319F08032910591F71092A1026E
:102E6000A80FB91F1C921092A0020895EF92FF9232
:102E70001F93CF93DF937B01EA0101C0CAD08091F9
:102E8000D10284FFFBCF88E0E8E9F2E0DF011D9288
:102E90008A95E9F720E030E00AC0F901E856FD4FD5
:102EA000D701A20FB31F8C9180832F5F3F4F122F4A
:102EB0002C173D0718F42830310579F788E992E09E
:102EC00068E084D0812F90E0DF91CF911F91FF9037
:102ED000EF9008958F929F92AF92BF92DF92EF9200
:102EE000FF920F931F93CF93DF934C015B017A0105
:102EF0008A0193E0169507959A95E1F70F5F1F4FAA
:102F0000C0E0D0E0DD2419C0CE010896E816F9062D
:102F100018F048E050E003C0A7014C1B5D0B6D2D7D
:102F200070E083E0660F771F8A95E1F76A0D7B1DDD
:102F3000C4019CDFC80FD91FD3948D2D90E080175A
:102F4000910710F3CE01DF91CF911F910F91FF9068
:102F5000EF90DF90BF90AF909F908F9008951F9358
:102F6000162F01C056D08091D10284FFFBCFE8E933
:102F7000F2E088E0DF011D928A95E9F7109398024C
:102F8000CF0168E023D081E090E01F91089511D037
:102F9000529A20E040E45FE1A895CA010197F1F759
:102FA0002F5F2A3FC9F7529804D078941092A0025C
:102FB0000895E9E6F0E0808182608083E89A8BE4FE
:102FC0008093D2028AE58093D10208951F93DC0199
:102FD000162F8091D10284FF07C08091D20298E819
:102FE00089278093D20203C08AE58093D102912F72
:102FF000E3EDF2E08D91819391501916DCF383EDAE
:1030000092E0612F0E94DF001C5F1093D1021F919C
:1030100008951F93CF93DF936091E202635067FDA1
:10302000BCC08091DF02CCE0D0E0C81BD109CA51FE
:10303000DD4F8091DE028D3209F09DC0683009F0CD
:10304000AAC083EC8093C6028AE580937201109235
:10305000C5028881807639F0CE01C0DE282F8F3FEF
:1030600009F478C07EC09A811092CF0289818823AA
:1030700021F41092D00222E066C0853019F49093BA
:10308000E30260C0863009F049C08B81813019F4B9
:1030900089E091E01AC0823041F48BE191E0909395
:1030A000E1028093E00222E235C08330F1F49923FB
:1030B00041F48FED90E09093E1028093E00224E0F0
:1030C00029C0913041F483EE90E09093E102809327
:1030D000E00222E11FC09230E1F485EF90E090938E
:1030E000E1028093E00224E115C0813241F48DE2D7
:1030F00091E09093E1028093E00229E00BC08232DC
:1031000041F482EC90E09093E1028093E0022DE1A3
:1031100001C020E080E48093C50223C0883021F400
:1031200021E085EE92E011C0893019F49093E50218
:1031300009C08A3011F421E006C08B3019F48BE409
:103140008093D20220E08FEC92E09093E102809392
:10315000E00207C0888187FD2E8180E88093C50248
:1031600006C08F81882319F48E81821708F0822F80
:103170008093730110C08091C50287FF0CC0CE01FF
:10318000F9DD8F3F21F48EE18093720104C0882322
:1031900011F0109273011092E2028091720184FF8B
:1031A00055C0809173018F3F09F450C0182F8930AA
:1031B00008F018E0811B809373018091C60298E8A3
:1031C00089278093C602112371F18091C50287FF80
:1031D00008C087EC92E0612FCBDD182F893080F595
:1031E00022C02091E0023091E10286FF0AC0912FB7
:1031F000F901A7ECB2E084918D9331969150D9F703
:1032000008C0912FD901E7ECF2E08D9181939150A4
:10321000E1F7C90101961150810F911D1F5F909335
:10322000E1028093E00287EC92E0612F0E94DF00D0
:10323000612F6C5F6C3041F08FEF8093730104C09D
:103240008FEF809373016EE16093720194E189B115
:103250008C7031F49150D9F71092E3021092DD0294
:10326000DF91CF911F910895629FD001739FF0016C
:10327000829FE00DF11D649FE00DF11D929FF00D06
:10328000839FF00D749FF00D659FF00D9927729F3D
:10329000B00DE11DF91F639FB00DE11DF91FBD01C8
:1032A000CF011124089597FB092E07260AD077FD38
:1032B00004D049D006D000201AF4709561957F4F54
:1032C0000895F6F7909581959F4F0895A1E21A2EE3
:1032D000AA1BBB1BFD010DC0AA1FBB1FEE1FFF1FBA
:1032E000A217B307E407F50720F0A21BB30BE40B0A
:1032F000F50B661F771F881F991F1A9469F7609551
:103300007095809590959B01AC01BD01CF0108950A
:1033100097FB092E05260ED057FD04D0D7DF0AD023
:10332000001C38F450954095309521953F4F4F4FF4
:103330005F4F0895F6F790958095709561957F4F52
:103340008F4F9F4F0895AA1BBB1B51E107C0AA1FB7
:10335000BB1FA617B70710F0A61BB70B881F991F36
:103360005A95A9F780959095BC01CD010895EE0F6F
:10337000FF1F0590F491E02D09942F923F924F92F8
:103380005F926F927F928F929F92AF92BF92CF92F5
:10339000DF92EF92FF920F931F93CF93DF93CDB7FE
:1033A000DEB7CA1BDB0B0FB6F894DEBF0FBECDBF76
:1033B00009942A88398848885F846E847D848C8447
:1033C0009B84AA84B984C884DF80EE80FD800C8150
:1033D0001B81AA81B981CE0FD11D0FB6F894DEBF33
:1033E0000FBECDBFED01089511E0C0E4D1E003C0F0
:1033F000FE01BFDF2296C234D107D1F7F894FFCF88
:103400003D006000002000486F7374206973206FD6
:1034100066666C696E652C00656E746572696E67B0
:10342000207374616E64627900436F6E6E656374BD
:10343000696E6700746F20486F737400202020202D
:10344000002020200020200057616974696E6720E9
:10345000666F72006C617465737420646174612EB0
:103460002E2E0000002000000300000096FFFF0049
:1034700000015AFF00000000EB152D0FFB1516157B
:103480003715751400000000EB152D0FFB15A21564
:10349000A315DA1100401050004014540000000041
:0434A000AF176A17E1
:00000001FF
